:020000022000DC
:1060000000000120D9B3020019B402001BB4020041
:106010001DB402001FB4020021B402000000000001
:1060200000000000000000000000000055B3020066
:1060300025B402000000000075B3020029B402007C
:106040002BB402002BB40200F5900200996B020001
:1060500085B702002BB402002BB402002BB402005F
:106060002BB402002BB402002BB402002BB40200AC
:106070002BB402002BB402002BB402002BB402009C
:106080002BB40200ADB002002BB402002BB402000E
:106090002BB402002BB402002BB402002BB402007C
:1060A0002BB402002BB402002BB402002BB402006C
:1060B0002BB402002BB4020000000000000000001E
:1060C0002BB402002BB402002BB402002BB402004C
:1060D0002BB402002BB402002BB40200000000001D
:1060E00000000000000000000000000000000000B0
:1060F00000000000000000000000000000000000A0
:10610000000000000000000000000000000000008F
:10611000000000000000000000000000000000007F
:10612000000000000000000000000000000000006F
:10613000000000000000000000000000000000005F
:10614000000000000000000000000000000000004F
:10615000000000000000000000000000000000003F
:10616000000000000000000000000000000000002F
:10617000000000000000000000000000000000001F
:10618000000000000000000000000000000000000F
:1061900000000000000000000000000000000000FF
:1061A00000000000000000000000000000000000EF
:1061B00000000000000000000000000000000000DF
:1061C00000000000000000000000000000000000CF
:1061D00000000000000000000000000000000000BF
:1061E00000000000000000000000000000000000AF
:1061F000000000000000000000000000000000009F
:10620000F1EE103A43F08073E1EE103A704700BFB0
:1062100010B5054C237833B9044B13B10448AFF3E0
:1062200000800123237010BD3C38002000000000D6
:1062300010F9020008B5034B1BB103490348AFF343
:10624000008008BD000000004038002010F9020066
:10625000154B002B08BF134B9D46A3F5803A002138
:106260008B460F461348144A121A06F0A5FB0F4B33
:10627000002B00D098470E4B002B00D098470020F1
:10628000002104000D000D48002802D00C48AFF397
:10629000008006F02DFB2000290005F0F1F806F043
:1062A00013FB00BF000008000000012000000000F8
:1062B000000000003C3800201C45002000000000C9
:1062C000000000000378012B04BF014A13707047DF
:1062D0005838002000B5244885B000F0F7FA234A6A
:1062E00021492348572300F02FFE20B92149224895
:1062F00002F006FBFEE74FF4C86140F29B124FF438
:1063000080438DE80E001A4803230122FF2100F08C
:106310003DFE17480A2100F0C1FC15480A2100F093
:10632000D3FC13480A2100F0E5FC1449124802F09E
:10633000E7FA0D4A12487523482101F07FFA20B987
:1063400010490D4802F0DCFAFEE70F490A4802F056
:10635000D7FA00210A4801F0CDFA0948002105B01A
:106360005DF804EB01F0D6BA40390020801A06002F
:10637000E438002010F30200303A00202CF3020031
:1063800028390020DCF2020000F3020000000000C7
:1063900070B5AD4B2DED028B1A788EB042B9AB4C77
:1063A0002378002B40F0A7800EB0BDEC028B70BDAF
:1063B000A74902A800261E7002F0ECFEA549A648D7
:1063C00002F0FAF902A9A44802F054FA02A802F075
:1063D00085FFA24902A802F029FF0546002840F0E7
:1063E00005819F4902A802F021FF002800F01181D9
:1063F000964C9C4825702946402206F0DDFA02F0B2
:106400009DFF994B994D1B68C01A05F0D1FF8CA3D5
:10641000D3E9002308F0A4FC06F06CF8D5ED007A6F
:106420009349034608EE103AF8EEE77A8A48C7EE39
:10643000888A02F065FA8F49874802F0BDF98E49D3
:1064400005A802F0A7FE05A9834802F013FA05A8E3
:1064500002F0BAFE8949804802F0AEF90A222968A2
:106460007D4802F003FB86497B4802F0A5F918EE4F
:10647000900A05F0BFFF41EC100B0221764802F0B4
:10648000C9F98049744802F03BFA7F49724802F02A
:1064900093F918EE100A05F0ADFF41EC100B022144
:1064A0006D4802F0B7F979496B4802F029FA78494A
:1064B000694802F025FA40220021654806F07CFA7E
:1064C0004022634B67497348009205F001F9724B13
:1064D0009842054608D071495F4802F06DF95E4860
:1064E00029460A2202F0C2FA02A802F06DFE2378C1
:1064F000002B3FF459AF02F021FF694A6949136844
:106500000968C31A8B42FFF44FAF5849664C0B68B9
:10651000106001330B60E368DC0104D5634B1A683B
:10652000D00700F1898003F04FFF614BA0FB03010E
:10653000860A46EA81565F485F4D044600F040FCFB
:106540001CE000F0F9FB07EE900AF8EE677A2046AF
:10655000C5ED007A00F0F6FB07EE900AF8EE677AD8
:106560002046C5ED017A00F0F3FB07EE900AF8EE45
:10657000677A2046C5ED027A00F0F0FB204600F075
:10658000CFFB03462046002BDBD105A94B4801F089
:1065900073F9454A4A49D2680A9B0B60D101EB6006
:1065A00003D5424B1A68D20743D403F00DFF404B8A
:1065B000A0FB0301840A44EA8154424926483E4D27
:1065C00002F0FAF8A11B0A222348264C02F04EFAE8
:1065D0000FCD0FC40FCD0FC40FCD0FC495E803002E
:1065E00084E803000EB0BDEC028B70BD1F4B174C4E
:1065F0001E600122227002F0A1FE1B4B186002F007
:106600009DFE274B3049024613481A6002F078F984
:1066100051E72E4905A802F0BDFD05A902A802F028
:106620001BFE044605A802F0CFFD002C50D1074CFC
:1066300041E75C68A409C0E75E68B6097BE700BF74
:10664000FCA9F1D24D62503F583800205938002043
:106650005C38002054F30200303A002060F302005E
:1066600080F302009C38002020390020DC38002014
:1066700084F30200A8F3020048F30200BCF3020016
:10668000CCF30200D8F30200DCF30200E8F30200CE
:10669000ECF30200ECF402000000AD0B30F4020059
:1066A000E03800203C360020F0ED00E0001000E073
:1066B00040420F00E4380020043600202839002032
:1066C000243900205CF4020064F3020010F402009C
:1066D000049B0E4C012202A905A802F0D1FD05A8D9
:1066E00002F026FE0A4903460A48236002F064F8D5
:1066F00021680848084C0A2202F0DEF907490548DB
:1067000002F0FEF805A802F05FFDD4E63C3600205A
:1067100014F40200303A0020593800202CF4020012
:1067200010B5074C074800F0B7FA204601F014F8FE
:106730002046054A0549BDE8104006F0A7B800BF4D
:1067400028390020E4380020003600206577020058
:1067500030B5264D264889B04FF4E13102F0C4FA35
:10676000FFF7B8FD0FCD02AC0FC495E8030000237E
:1067700084E803001F4A204802A904F0C9FE1F4B09
:106780009842044609D01E49194802F015F81848E5
:1067900021460A2202F06AF9FEE740220021194848
:1067A00006F00AF940220021174806F005F94022B8
:1067B000144B15491048009204F08AFFA042054688
:1067C00009D012490A4801F0F7FF094829460A2270
:1067D00002F04CF9FEE70E49054802F091F800205E
:1067E00005F06EFB02F0D2FC09B030BDD4F402001B
:1067F000303A0020C5620200ECF402000000AD0B4C
:1068000064F402005C3800209C38002090F4020000
:10681000B8F4020000207047704700BF203002F03B
:1068200083B900BF38B5437F0BB9002038BD00F1F4
:10683000680420460D4602F085F90028F5D120466F
:10684000294602F051F9012038BD00BF203002F086
:106850005DB900BF203002F06DB900BF2DE9F04FE7
:1068600083B0019272B34C1E174F0546C1F1010669
:1068700004EB020800F1680A2B681B68BB4206EBB8
:10688000040B14F8019F17D16B7F50461BB9584673
:1068900003B0BDE8F08F02F055F903464946504673
:1068A000002BF4D102F020F94445E5D1DDF804B025
:1068B000584603B0BDE8F08F49462846984700285F
:1068C000F2D1E4E79346E2E72568020030B4837E24
:1068D00002694FF0A04403F5E07340F20C6501211A
:1068E000C17644F82350437E03F5E07344F8235007
:1068F0004FF0CC740623C2F82445C2F80035837EDD
:10690000C2F8083590F91830447EC2F80C45002BC7
:1069100019DB104C5A0903F01F0560322344A940CB
:10692000602544F8221083F8005390F91830002BAA
:1069300007DB084903F01F0001225B09824041F890
:10694000232030BC7047044A03F00F031A4460232D
:106950001376EAE700E100E0FCEC00E0C37E9BB1C7
:106960000B4A036991424FF00000C3F800050CD9AF
:10697000084A914294BF4FF080614FF0C8610622EF
:10698000C3F82415C3F8002570474FF0CC71F6E723
:10699000A086010090D003002DE9F843154612B9F6
:1069A0001046BDE8F883064600F1200948460F4628
:1069B000984602F0A7F834690123C4F88875236269
:1069C000C4F83495C4F83855236002E0D4F8242183
:1069D0001AB9D4F84C21002AF8D00023C4F84C315D
:1069E00002E0D4F824211AB9D4F85C21002AF8D0A6
:1069F0000023C4F85C31B8F1000F02D1D4F824317F
:106A0000A3B101236361D4F80431002BFBD0002330
:106A1000C4F80431D4F8243113B10023C4F824316C
:106A2000D4F83C053066C0B2BDE8F8830123E361C9
:106A3000D4F84831002BFBD00023C4F84831E9E7F3
:106A4000F8B514460AB91046F8BD054600F120070E
:106A500038460E4602F056F82B690122C3F88865C5
:106A60001A62C3F83475C3F838451A6002E0D3F8E7
:106A700024211AB9D3F84C21002AF8D00022C3F8F7
:106A80004C2102E0D3F824211AB9D3F85C21002A62
:106A9000F8D000210122C3F85C115A61D3F8042117
:106AA000002AFBD00022C3F80421D3F8241109B135
:106AB000C3F82421D3F83C052866C0B2F8BD00BF56
:106AC00010B5044680F8B010683002F01BF80123BE
:106AD000637710BDF8B503690446002290F8B00052
:106AE0006277012704F16806C3F88805C3F804211A
:106AF00030461F62C3F844650D4602F015F823695D
:106B0000C3F848059F6002E0D3F824211AB9D3F8EE
:106B10005021002AF8D00022C3F85021304602F05C
:106B200003F8236920BB0022C3F8602115B9D3F80C
:106B3000242112B301225A61D3F80421002AFBD088
:106B40000022C3F80421D3F8240160B10022C3F865
:106B50002421D3F8C404C3F8C404022803D00428B1
:106B60000CBF03200420F8BDD3F82421002ADAD179
:106B7000D3F86021002AF7D0D5E70122DA61D3F8F3
:106B80004821002AFBD00022C3F84821DBE700BFE0
:106B90000121FFF79FBF00BF70B52A4C6369D3F88E
:106BA0006421002A3CD1D3F86821F2B9D3F804213A
:106BB00022B1227F0021C3F8041162B9D3F8242145
:106BC00042B10022C3F82421D3F8D024C3F8D02442
:106BD00001225A6170BDD4F8B820D3F83C05206674
:106BE000002AEBD090476369E8E70022C3F86821E8
:106BF00015484FF48073A38301F084FFD4F8B430B8
:106C000003B1984763691048C3F8440500236377CC
:106C100001F08AFF63690122C3F848055A63C5E79A
:106C2000002204F12006C3F86421012530462577AF
:106C300001F068FF63694022C3F83465C3F8382562
:106C40001D63B0E740390020A839002038B50E4C4C
:106C50000E4A20464FF47A7340F8202B0025C4E9F1
:106C6000015301F035FF04F1680001F031FF084ADB
:106C7000084BD2E919120320C4E904336577207662
:106C80006176A27638BD00BF40390020FCF40200D6
:106C90005CF5020000300040704700BF38B5044684
:106CA0000D4600682179FFF70BFF206803680C216F
:106CB0001B6898472068036829461B689847206826
:106CC000BDE83840FFF764BF38B504460D4600689C
:106CD0002179FFF7F5FE206803680D211B689847AE
:106CE0002068036829461B6898472068BDE838403B
:106CF000FFF74EBF38B504460D4600682179FFF70F
:106D0000DFFE206803680E211B689847206803682F
:106D100029461B6898472068BDE83840FFF738BF10
:106D200090F8383090F839209B1AD8B21B0644BF2F
:106D30000430C0B2704700BF90F83930023350F8C9
:106D40002300704790F83930063350F8230070471D
:106D500090F839300A3350F82300704790F8392002
:106D600090F838309B1A59B20029DBB2BCBF04330B
:106D700059B221B1013202F0030280F83920704784
:106D800070B50446006816460D46FFF799FE206868
:106D9000036831461B68984700212068FFF79AFE78
:106DA000206829460122FFF74BFE20680368DB6854
:106DB000984720B1206803681B699847C0B270BD2E
:106DC0002DE9F0430622017983B00446FFF7D8FF8E
:106DD0002179804604222046FFF7D2FF404500F08B
:106DE000AF80B0EB08084FF057012068677948BFC3
:106DF00008F12008FFF764FE2068036807211B687C
:106E000008FB07F7984707EB47072068FFF7C0FE26
:106E1000002F7FDD00264FF02009202F40F38880CF
:106E20006579206805EB4505B9FBF5F305FB03F52E
:106E30002A4657217F1BFFF703FE002DEDD094F863
:106E4000383020688DF80760013303F0030384F8BD
:106E5000383003681B69984723688DF806001A6864
:106E600018461369984723688DF805001A68184674
:106E70001369984794F838308DF80400019A02336A
:106E8000C2F3110244F823206379012B47D920680B
:106E900003681B69984723688DF806001A6818462E
:106EA0001369984723688DF805001A681846136916
:106EB000984794F838308DF80400019A0633C2F3ED
:106EC000110244F823206379022B28D92068036833
:106ED0001B69984723688DF806001A6818461369DD
:106EE000984723688DF805001A6818461369984773
:106EF00094F838308DF80400019A0A33C2F3110275
:106F000044F823206379A3EB83031D44002D96DC12
:106F1000002F82D11FFA88F003B0BDE8F083A3EB05
:106F200083031D44002D8ADC002F7FF476AFF1E748
:106F30003A46206857213D46FFF782FD00277EE74D
:106F4000002003B0BDE8F08330B5044683B00846A6
:106F500021601D460192FFF7B9FC01992068FFF7F7
:106F6000FDFC257129462046FF22FFF709FF152861
:106F700002D0002003B030BD2179FE222046FFF769
:106F8000FFFEA071012003B030BD00BF2DE9F84F16
:106F90000E4617460179DDF830A0092204461D4649
:106FA000DDE90A89FFF7ECFE217983462068FFF7C7
:106FB00087FD2068036809211B68984720680368DB
:106FC0004BF040011B68C9B298472068FFF7E0FD0D
:106FD00002F0B4F9834609E02179FFF7D1FE10F001
:106FE000400F4FF001000BD002F0B4F902F0A6F907
:106FF0000346A3EB0B03632B4FF009022046EBD9AA
:10700000012F00F03582022F00F0AC82042F00F037
:107010000F83082F00F04582102F21794FF00802CE
:10702000204600F03983202F00F00683FFF7A8FEEA
:10703000217907462068FFF743FD2068036808218F
:107040001B6898472068036807F01F011B6841F020
:10705000400198472068FFF79BFD082221792046D0
:10706000FFF78EFE217907462068FFF729FD20688B
:10707000036808211B6898472068036847F01001DF
:10708000C9B21B6898472068FFF782FD032D21795C
:107090004FF00902204600F0D481022D00F06E81ED
:1070A000FFF76EFE217907462068FFF709FD20688B
:1070B000036809211B6898472068036807F0F801F6
:1070C0001B6841F0020198472068FFF761FDBAF59F
:1070D000805F217965714FF00A02204609DBBAF51D
:1070E000005FC0F26381BAF5804FC0F2898200F080
:1070F0000A82FFF745FE217907462068FFF7E0FC8A
:10710000206803680A211B6898472068036807F015
:107110009F011B6898472068FFF73AFDB8F1630F9D
:1071200021794FF00A02204619DDB8F1C70F40F36C
:107130007081B8F5C87FC0F24B82B8F5487FC0F2C5
:107140009382B8F57A7FC0F2F581B8F5C86FC0F2C6
:10715000D282B8F5486FC0F2E68200F0B582FFF740
:107160000FFE217907462068FFF7AAFC2068036814
:107170000A211B6898472068036807F0E3011B6831
:1071800098472068FFF704FDB9F1750F40F3F280CE
:10719000B9F1D60F40F32281B9F5CD7F40F3FD81DF
:1071A00040F29B13994521794FF00A02204600F0E6
:1071B0009381FFF7E5FD217907462068FFF780FC02
:1071C000206803680A211B6898472068036807F055
:1071D000FC011B6898472068FFF7DAFC21792068DA
:1071E000FFF76EFC206803680C211B689847206835
:1071F000036831461B6898472068FFF7C9FC21796E
:107200002068FFF75DFC206803680D211B68984724
:107210002068036831461B6898472068FFF7B8FC70
:1072200021792068FFF74CFC206803680E211B6859
:1072300098472068036831461B6898472068FFF725
:10724000A7FC21792068FFF73BFC20680368102128
:107250001B6898472068036831461B689847206878
:10726000FFF796FC112221792046FFF789FD21794D
:1072700006462068FFF724FC2068036811211B687C
:1072800098472068036806F0F8011B6841F0010187
:1072900098472068FFF77CFC012D34D821792068BD
:1072A000FFF70EFC2068036804211B6898472068DC
:1072B000036800211B6898472068FFF769FC217963
:1072C0002068FFF7FDFB2068036805211B689847CD
:1072D0002068036800211B6898472068FFF758FC66
:1072E00021792068FFF7ECFB2068036806211B6802
:1072F00098472068036800211B6898472068BDE80C
:10730000F84FFFF745BC112221792046FFF738FDE1
:10731000217906462068FFF7D3FB20680368112116
:107320001B6898472068036806F08F011B6841F0CE
:10733000200198472068FFF72BFC022DAED01222C7
:1073400021792046FFF71CFD217905462068FFF7CB
:10735000B7FB2068036812211B6898472068036800
:1073600005F0F8011B6841F0030198472068FFF71A
:107370000FFC93E721790A2220461AE7FFF700FD68
:10738000217907462068FFF79BFB206803680921E5
:107390001B6898472068036807F0F8011B6841F0F4
:1073A000030198472068FFF7F3FB90E6FFF7E8FC3E
:1073B000217907462068FFF783FB206803680A21CC
:1073C0001B6898472068036807F09F011B6841F01D
:1073D000200198472068FFF7DBFB9FE60A2221790E
:1073E0002046FFF7CDFC217907462068FFF768FBB0
:1073F000206803680A211B6898472068036807F023
:10740000FC011B6841F0010198472068FFF7C0FBB1
:10741000E4E6FFF7B5FC217907462068FFF750FB4B
:10742000206803680A211B6898472068036807F0F2
:10743000E3011B6841F0040198472068FFF7A8FBAF
:10744000A2E6FFF79DFC217907462068FFF738FB8D
:107450002068036809211B6898472068036847F083
:1074600007011B68C9B298472068FFF791FB2EE619
:10747000082221792046FFF783FC217907462068FE
:10748000FFF71EFB2068036808211B6898472068E7
:10749000036807F01F011B6898472068FFF778FB17
:1074A000DBE53A4621792046FFF76AFC21798346DD
:1074B0002068FFF705FB2068036839461B6898477A
:1074C000206803680BF01F011B6841F060019847BA
:1074D0002068FFF75DFBC0E5FFF752FC2179074606
:1074E0002068FFF7EDFA206803680A211B689847B7
:1074F0002068036847F003011B68C9B298472068F9
:10750000FFF746FB6AE6FFF73BFC21790746206858
:10751000FFF7D6FA206803680A211B68984720689D
:10752000036847F060011B68C9B298472068FFF7FD
:107530002FFBF3E5FFF724FC217907462068FFF7CE
:10754000BFFA206803680A211B689847206803680F
:1075500007F0E3011B6841F0100198472068FFF72E
:1075600017FB11E6082221792046FFF709FC217953
:1075700007462068FFF7A4FA2068036808211B6803
:1075800098472068036807F01F011B6841F020013D
:1075900098472068FFF7FCFA5FE50A222179204628
:1075A000FFF7EEFB217907462068FFF789FA20688C
:1075B00003680A211B6898472068036807F0FC01EC
:1075C0001B6841F0020198472068FFF7E1FA05E6E1
:1075D000FFF7D6FB217907462068FFF771FA20688C
:1075E00003680A211B6898472068036807F0E301D5
:1075F0001B6841F0080198472068FFF7C9FAC3E506
:10760000FFF7BEFB217907462068FFF759FA20688B
:1076100003680A211B6898472068036807F09F01E8
:107620001B6841F0400198472068FFF7B1FA75E503
:10763000217908222046F9E4FFF7A2FB21790746C9
:107640002068FFF73DFA2068036808211B68984707
:107650002068036807F01F011B6841F0A0019847EC
:107660002068FFF795FAF8E4FFF78AFB21790746CF
:107670002068FFF725FA206803680A211B689847ED
:107680002068036807F0E3011B6841F00C0198478C
:107690002068FFF77DFA77E5FFF772FB217907464F
:1076A0002068FFF70DFA2068036808211B689847D7
:1076B0002068036807F01F011B6841F080019847AC
:1076C0002068FFF765FAC8E4FFF75AFB21790746FF
:1076D0002068FFF7F5F9206803680A211B689847BE
:1076E0002068036847F01C011B68C9B298472068EE
:1076F000FFF74EFA48E5FFF743FB2179074620687C
:10770000FFF7DEF9206803680A211B6898472068A4
:10771000036807F0E3011B6841F0140198472068F3
:10772000FFF736FA30E5FFF72BFB21790746206893
:10773000FFF7C6F9206803680A211B68984720688C
:10774000036807F0E3011B6841F0180198472068BF
:10775000FFF71EFA18E500BF0022C0E903224261CC
:10776000704700BF10B50446C06808B103F0B8FE0A
:10777000206908B103F0B4FE606908B103F0B0FEFF
:10778000204610BD70B504468EB0012502230F229D
:107790000E4608A8E168CDE9005500F0CBF80222BA
:1077A00008A803A900F09AF9BDF80C305BBA9BB2A7
:1077B00040F21712934202D000200EB070BD268016
:1077C000182003F08BFECDE900550646E168022340
:1077D0002A4600F0AFF82661182003F07FFECDE9BD
:1077E00000550646E1680223002200F0A3F8216953
:1077F00066612B462A4604A800F0B6F9294604A87B
:1078000000F038FA022001F0A5FD0D2303222169C2
:1078100006A800F0A9F906A800F0AEF9034610F09A
:10782000010222714FF00100DBB2ECD0C3F3800201
:10783000C3F34003A270E3700EB070BD70B505468F
:1078400082B01020CDE900211E4603F047FEDDE99D
:107850000021044600F08CFAEC602046012100F083
:1078600091FA08B902B070BD3146284602B0BDE8B1
:107870007040FFF787BF00BF70B582B004460D4669
:1078800001F05CFD0D23216903220646684600F0E5
:107890006BF9684600F070F910F00103237106D00F
:1078A000C3B2C3F38002C3F34003A270E370606904
:1078B00000F09CF803B207EE903AF8EEE77A202247
:1078C000C4ED027A0021281D05F076F8D4ED027A85
:1078D0009FED077A23886B6067EE877A24220D2359
:1078E00001202E61C5ED057A2A60AB6002B070BD43
:1078F0000000003C10B582B00C460523016902224D
:10790000684600F031F92146684600F0B3F902B04C
:1079100010BD00BF10B582B00C46072301690322D9
:10792000684600F021F92146684600F0A3F902B04C
:1079300010BD00BF30B49DF80C50016042819DF82D
:1079400008104573002230BC0373817342614260AA
:10795000704700BFF0B503464489006885B0ADF8B4
:107960000C4040B15B7B019303AB0093012300F01B
:107970001FFA05B0F0BD58680028FAD093F808C087
:10798000BCF1030FE5B223D00F461646BCF1000F41
:107990000FD0BCF1020F11D165F07F058DF80C50AE
:1079A0005B7B00933246394603AB00F07FFA05B0AB
:1079B000F0BD05F07F058DF80C50F1E7BCF1010F2B
:1079C000EED105F07F0545F040058DF80C50E7E756
:1079D0005B7B8DF80D500133240A009324F00104E1
:1079E00003AB8DF80C4000F061FAC2E7F0B54289B4
:1079F000044685B000F10F030068217BADF80C2030
:107A0000002832D00022CDE9001203A9627B00F0E9
:107A1000FDF9002843D0237B002B44D0A27B8AB100
:107A2000012BE07B0CD0227C022B42EA002007D005
:107A3000627C032B42EA002002D0A37C43EA0020B0
:107A400005B0F0BD1C44012BA07BF9D0627B022B5A
:107A500042EA0020F4D0227B032B42EA0020EFD040
:107A6000E37A43EA002005B0F0BD6068B8B1257A3A
:107A7000032DD6B221D06DB1022D17D106F07F06AD
:107A80008DF80C60FF22CDE9001203A9627B00F0A3
:107A9000DFFBBEE766F07F068DF80C60F2E74FF083
:107AA000FF3005B0F0BD184605B0F0BD012D04BF94
:107AB00066F03F068DF80C60E4E7677B0091120AE0
:107AC000FF2142F0010501917A1C03A98DF80C50A9
:107AD0008DF80D6000F0BCFB9BE700BF70B54589D9
:107AE00084B004460068ADF80C500B4640B100214C
:107AF0000092627B019103A900F088F904B070BD87
:107B000060680028FAD0217A0329EEB21BD071B147
:107B1000022911D106F07F068DF80C600092FF213A
:107B2000627B019103A900F093FB04B070BD66F085
:107B30007F068DF80C60F1E7012904BF66F03F066F
:107B40008DF80C60EAE7647B0092FF212D0A45F076
:107B500001050191621C03A98DF80C508DF80D6090
:107B600000F076FBCAE700BF10B45DF8044B01607B
:107B700002714371704700BFF0B5046885B0638936
:107B8000ADF80C3005462068267BDFB2190A04F1F7
:107B90000F03002838D00021627B0191009603A9D1
:107BA00000F034F9002848D0227B002A48D0A37B7B
:107BB000C3B1012AE37B0CD0217C022A41EA0323D2
:107BC00007D0617C032A41EA032302D0A27C42EA67
:107BD000032329796A7901208840D340013818406D
:107BE00005B0F0BD1444012AA37BF2D0617B022AC8
:107BF00041EA0323EDD0217B032A41EA0323E8D0A5
:107C0000E27A42EA0323E4E76068B0B1227A032A09
:107C10001FD06AB1022A15D107F07F078DF80C70CA
:107C2000FF21627B0191009603A900F011FBB9E7E7
:107C300067F07F078DF80C70F2E74FF0FF33C8E76D
:107C40001346C6E7012A04BF67F03F078DF80C70A2
:107C5000E6E7627B00964FF0FF0C41F0010601322F
:107C6000CDF804C003A98DF80C608DF80D7000F0FC
:107C7000EFFA97E7F8B5056806460C462A7B05F14A
:107C80000F012846FFF72AFF00286CD02B7B002B22
:107C90006CD0AA7B002A3AD0012BEF7B0CD02A7C37
:107CA000022B42EA072707D06A7C032B42EA072708
:107CB00002D0AB7C43EA07273068027B042A3BD81A
:107CC0003179757901238B40013B03EA0401AB4014
:107CD000A94027EA03031943416192B1837B6BB347
:107CE0008318012A4FEA112499730AD0022A5C737F
:107CF0004FEA114405D0032A1C734FEA116100D0EA
:107D0000C173BDE8F84000F10F01FFF723BE1D4429
:107D1000012BAF7BD0D06A7B022B42EA0727CBD066
:107D20002A7B032B42EA0727C6D03068EB7A027B16
:107D3000042A43EA0727C3D90020F8BD012AC173EA
:107D40004FEA1123DDD0022A03744FEA1143D8D041
:107D5000090E032A18BF81744374BDE8F84000F18E
:107D60000F01FFF7F7BD4FF0FF37A5E71F46A3E769
:107D700030B4002520240572C460017030BC42601C
:107D8000704700BF38B5044640680D46FEF79EFDBB
:107D90000120207205B938BD21786068FEF790FE99
:107DA0006068FEF7F5FEB0FA80F0400938BD00BF0C
:107DB0002DE9F041079F0446C06815463A448242C7
:107DC00002D90020BDE8F0810E466068217898460F
:107DD000FEF776FE4FB1069B3BB16068194603681B
:107DE0003A465B689847B842EBD160680368314611
:107DF0005B682A4698478542E3D160684146FEF7B2
:107E000069FEB0FA80F04009BDE8F0812DE9F04745
:107E10000446C068DDF820809DF82470824202D9B3
:107E20000020BDE8F08760680E4621781546994627
:107E3000FEF746FE6068036831465B682A4698474D
:107E40008542EDD160683946FEF744FE0028E7D14F
:107E50000746B8F1000F25D0E36821786068A8EBE9
:107E600007059D4228BF1D46A8EB0503BB428CBFFA
:107E700000230123EAB2FEF78FFD8542D0D175B110
:107E80004FF0000A5646606803681B699847013640
:107E900009EB0A03B6B2B542D855B246F3D82F441F
:107EA000B845D9D80120BDE8F08700BF2DE9F04FD3
:107EB000044687B00068109DCDE902219B4620B1A1
:107EC000636893E8060000F09FFB94F90E00461CDF
:107ED00040F0BA81002D74D05D446B1E0193984B25
:107EE00043F001030BF1FF3B009320681BF8017F77
:107EF0008DF81770002840F09D81217B914AA3687E
:107F0000B2FBF3FA00290CBF012580252F425FFA4E
:107F10008AFA06460CBF4FF001094FF000094FEAFC
:107F20008A18BAF1000F00F0F680009B404698478F
:107F3000637B13F0FD0F40F0078194F91030591C5A
:107F400000F0F88017EA050014BF012300234B4519
:107F500009D06169636A0A68002800F05C811343F4
:107F60000B604FF00109A069E36A026813430360E4
:107F7000BAF1000F05D0724B404643F00103984719
:107F8000A069217B94F91130013305D0E269A36A1D
:107F900012681A4218BF2E430268E36A22EA0303FA
:107FA000036094F91130013301D08DF81760002976
:107FB00040F0A8806D0015F0FF05B2D1019B5B4534
:107FC00093D1029B002B72D01A46039B1A4403F1F3
:107FD000FF3B5B4B013A43F00103019200932068A1
:107FE0001BF8017F8DF81770002840F01981217B64
:107FF000544AA368B2FBF3FA00290CBF012580257F
:108000002F425FFA8AFA06460CBF4FF001094FF083
:1080100000094FEA8A18BAF1000F5ED0009B404673
:108020009847637B13F0FD0F40F0B98094F910304E
:108030005A1C61D017EA050014BF012300234B45E9
:1080400009D06169636A0A68002800F0D980134387
:108050000B604FF00109A069E36A026813430360F3
:10806000BAF1000F05D0364B404643F00103984764
:10807000A069217B94F91130013305D0E269A36A2C
:1080800012681A4218BF2E430268E36A22EA030309
:10809000036094F91130013301D08DF81760A9B94C
:1080A0006D0015F0FF05B6D1019B5B4597D194F9A2
:1080B0000E00411C02D0012103F0C8FF206808B166
:1080C00000F0EAFA012007B0BDE8F08F6B10DDB2D6
:1080D000002BE9D0BAF1000FA0D1637B13F0FD0FA4
:1080E00040F0888094F91030581CA3D1A069E36A4D
:1080F000026813430360BDE7A169E36A0A6813439A
:108100000B60B0E76B10DDB2002B3FF457AFBAF154
:10811000000F7FF40AAF637B13F0FD0F75D194F964
:1081200010305A1C7FF40EAFA069E36A0268134353
:10813000036027E7A169E36A0A6813430B601AE743
:1081400020F5020020A10700A169E36A0A68134331
:108150000B604046009B9847A269217B94F9103040
:1081600001330BD0D4F814C0636ADCF800002F424E
:1081700014BF034320EA0303CCF800301068E36A1D
:1081800020EA0303136094F9113001333FF40FAF79
:10819000E269A36A12681A4218BF2E4305E7A16973
:1081A000E36A0A6813430B604046009B9847A26944
:1081B000217B94F9103001330BD0D4F814C0636ADA
:1081C000DCF800002F4214BF034320EA0303CCF87D
:1081D00000301068E36A20EA0303136094F9113059
:1081E00001333FF45CAFE269A36A12681A4218BF18
:1081F0002E4352E7A269E36A106803431360D8E78D
:1082000022EA030381460B6025E7A269E36A10684E
:1082100003431360A2E722EA030381460B60A2E650
:1082200001220DF1170100F03DFA019B5B457FF43F
:10823000D6AE3CE701220DF1170100F033FA019BA5
:108240005B457FF452AEBCE6002103F0FFFE41E641
:108250002DE9F04F87B0044600689DF8445003951F
:108260008B461546029320B1636893E8060000F040
:10827000CBF994F90E00461C40F0C281002D74D059
:108280005D446B1E01939A4B43F001030BF1FF3BDE
:10829000009320681BF8017F8DF81770002840F0CC
:1082A000A581217B934AA368B2FBF3FA00290CBF96
:1082B000012580252F425FFA8AFA06460CBF4FF04F
:1082C00001094FF000094FEA8A18BAF1000F00F0D7
:1082D000FA80009B40469847637B13F0FD0F40F007
:1082E0000B8194F91030591C00F0FC8017EA05004E
:1082F00014BF012300234B4509D06169636A0A68F2
:10830000002800F0608113430B604FF00109A06961
:10831000E36A026813430360BAF1000F05D0744B9F
:10832000404643F001039847A069217B94F911303E
:10833000013305D0E269A36A12681A4218BF2E43BE
:108340000268E36A22EA0303036094F911300133FF
:1083500001D08DF81760002940F0AC806D0015F059
:10836000FF05B2D1019B5B4593D1109B002B76D0CA
:10837000029A039FD318013B01935D4B02F1FF3A30
:1083800043F0010BCDF800B0D34620688DF817708C
:10839000002840F01D81217B564AA368B2FBF3FA06
:1083A00000290CBF012580252F425FFA8AFA064674
:1083B0000CBF4FF001094FF000094FEA8A18BAF1DB
:1083C000000F62D0009B40469847637B13F0FD0F7F
:1083D00040F0BD8094F910305A1C65D017EA0500B2
:1083E00014BF012300234B4509D06169636A0A6801
:1083F000002800F0DD8013430B604FF00109A069F5
:10840000E36A026813430360BAF1000F05D0384BEA
:10841000404643F001039847A069217B94F911304D
:10842000013305D0E269A36A12681A4218BF2E43CD
:108430000268E36A22EA0303036094F9113001330E
:1084400001D08DF81760C9B96D0015F0FF05B6D1E0
:108450009DF817300BF8013F019B5B4595D194F9CE
:108460000E00411C02D0012103F0F0FD206808B18C
:1084700000F012F9012007B0BDE8F08F6B10DDB2FB
:10848000002BE5D0BAF1000F9CD1637B13F0FD0FF8
:1084900040F0888094F91030581C9FD1A069E36A9D
:1084A000026813430360B9E7A169E36A0A681343EA
:1084B0000B60ACE76B10DDB2002B3FF453AFBAF1A9
:1084C000000F7FF406AF637B13F0FD0F75D194F9B5
:1084D00010305A1C7FF40AAFA069E36A02681343A4
:1084E000036023E7A169E36A0A6813430B6016E798
:1084F00020F5020020A10700A169E36A0A6813437E
:108500000B604046009B9847A269217B94F910308C
:1085100001330BD0D4F814C0636ADCF800002F429A
:1085200014BF034320EA0303CCF800301068E36A69
:1085300020EA0303136094F9113001333FF40BAFC9
:10854000E269A36A12681A4218BF2E4301E7A169C3
:10855000E36A0A6813430B604046009B9847A26990
:10856000217B94F9103001330BD0D4F814C0636A26
:10857000DCF800002F4214BF034320EA0303CCF8C9
:1085800000301068E36A20EA0303136094F91130A5
:1085900001333FF458AFE269A36A12681A4218BF68
:1085A0002E434EE7A269E36A106803431360D8E7DD
:1085B00022EA030381460B6021E7A269E36A10689F
:1085C00003431360A2E722EA030381460B609EE6A1
:1085D00001220DF1170100F065F89DF817300BF836
:1085E000013F019B5B457FF4D0AE38E701220DF1DE
:1085F000170100F057F8019B5B457FF44AAEB4E6E3
:10860000002103F023FD39E630B482B002AB03E968
:1086100006009DF804109DF805308268013B01F1C9
:10862000FF3418BF01230025022CC2F80055037443
:1086300098BF43EA4103C1730099C2F85435154B02
:10864000B3FBF1F3B3F5007F04D2FF2B0CD94FF04D
:10865000806101E04FF000710123C2F82415C2F8D7
:10866000003502B030BC70477F2B06D83F2B07D8AF
:108670001F2B08D94FF00051EEE74FF00061EBE7F8
:108680004FF08051E8E70F2B8CBF4FF080414FF047
:108690000041E1E70090D00383680022C3F8002581
:1086A000704700BFB2B1013A30B48C1800250139CF
:1086B000826811F8013FC2F81C35D2F80831002B4E
:1086C000FBD0D2F81835C2F80851A1420B70EFD197
:1086D00030BC7047704700BF0A4A0B4B0B4970B45F
:1086E000D2E90C05966B0A4C987300224FF4807007
:1086F0001E739C605D73074CDA731A8288800C606D
:1087000070BC70475CF50200FC390020103A002074
:108710000030024000093D0000207047704700BF54
:10872000002070474FF0FF30704700BF00207047B7
:108730004FF0FF30704700BF0020704730B4084B47
:10874000084A4FF47F4102F10805002430324FF40B
:108750007A709982C3E901401D601A6130BC70478C
:10876000183A002028F5020008B50121112003F075
:10877000D5FB112003F080FC1320012103F0CEFB78
:10878000BDE80840132003F077BC00BFF8B51746DA
:1087900082B105460E46002402E00134A74207D00C
:1087A0002B6816F8011B1B68284698470028F4D14F
:1087B0002046F8BD1446FBE72DE9F0410C46D9B13F
:1087C00007688046084604F0A5FE7B68104A93427D
:1087D000064615D1D0B1002504E00135AE4208D0DF
:1087E000D8F800703B6814F8011B404698470028F1
:1087F000F3D12846BDE8F0810D462846BDE8F0815A
:10880000024621464046BDE8F04118470546F0E7DC
:108810008D870200F0B50446C3B0CBB2134A8DED8C
:10882000000B02A84FF4807104F02EFE2368104A5A
:108830005D689542064610D102AF002503E0013580
:10884000AE4207D023681B6817F8011B20469847E3
:108850000028F4D1284643B0F0BD024602A92046C4
:10886000A8470546284643B0F0BD00BFDCF502002E
:108870008D87020003682DE9F041DFF880805E6893
:108880000F688D68464504462CD17DB1002603E073
:108890000136B54223681AD01B6817F8011B204621
:1088A00098470028F4D1236835465E68464511D1C3
:1088B0001B680D212046984730B1236820461B686D
:1088C0000A219847A8B102352846BDE8F0815E68C4
:1088D0004645EDD0084920460222B04705442846C7
:1088E000BDE8F0812A463946B047236805465E68F0
:1088F000DCE70135E8E700BFE4F502008D87020000
:108900002DE9F0470768DFF894A0D7F804900446F3
:108910000E4600293AD0084604F0FCFDD1458046B9
:1089200022D1002836D0002503E00135A84527686C
:1089300020D03B6816F8011B204698470028F4D148
:108940002768D7F80490D14518D13B680D212046FF
:10895000984730B1236820461B680A219847B8B170
:1089600002352846BDE8F087024631462046C84712
:1089700027680546D7F80490D145E6D00649204639
:108980000222C84705442846BDE8F0870D46DAE7CD
:108990000135E6E70546D6E7E4F502008D870200DB
:1089A0002DE9F0418AB000230546012A98BF0A222A
:1089B0008DF8243009ACB1FBF2F602FB1610C3B2FD
:1089C00009280F4603F130008ABF3733C3B2DBB248
:1089D000BA4204F8013D3146EDD92F68204604F033
:1089E00099FD7B680F4A9342804612D168B10026F8
:1089F00003E00136B04508D02F683B6814F8011B2E
:108A0000284698470028F4D1B04640460AB0BDE851
:108A1000F0810246214628469847804640460AB0E3
:108A2000BDE8F0818D87020070B506460D462AB973
:108A30000368BDE870401B68C9B218470A2A14468B
:108A40000ED100290DDA03682D211B6898472246B4
:108A50000346694230461C46FFF7A2FF204470BD22
:108A6000D2B2BDE87040FFF79BBF00BF70B50446AF
:108A7000FFF7DAFF23680E4A5E68964205460DD17D
:108A80001B680D212046984730B1236820461B689B
:108A90000A21984748B10235284670BD054920464D
:108AA0000222B0470544284670BD0135F4E700BFF7
:108AB0008D870200E4F5020032B9026810B4136831
:108AC0005DF8044BC9B21847D2B2FFF769BF00BFC7
:108AD00010B540220021044603F06EFF0023C4E9D4
:108AE0001033204610BD00BF10B4D0E91024531C31
:108AF00003F03F039C4218BF81545DF8044B18BF3C
:108B0000036470470023C0E910337047D0E9102395
:108B1000934206D05A1CC35C02F03F0242641846DE
:108B200070474FF0FF307047D0E91030181A48BF37
:108B300040307047D0E91023934214BFC05C4FF01F
:108B4000FF307047D0E91030013303F03F03181AAB
:108B5000B0FA80F04009704790F8A300704700BF5A
:108B600038B590F99D30002B04460DDB5A0920489A
:108B70002032012103F01F0301FA03F340F82230F1
:108B8000BFF34F8FBFF36F8F2369002101224FF492
:108B90008870C3F80803C3F84411C3F858115A6029
:108BA000DA6002E003F018F82369D3F85821002AAC
:108BB000F8D0D3F84421002AF4D04FF0FF3200253A
:108BC000C3F8005504F11400C3F80C25C3F81425AC
:108BD000C3F80825C3F81025FFF794FFD4F8A400C4
:108BE00001F06EF9C4F8A45084F8A35038BD00BF5A
:108BF00000E100E01430FFF797BF00BF1430FFF72B
:108C000099BF00BF1430FFF781BF00BF08B5D0F88F
:108C1000A40001F049F9002814BF4020002008BD3D
:108C200090F8A33003B9704710B54FF0FF310446F8
:108C3000D0F8A40000F0BCFF0023D4F8A4001A462A
:108C4000BDE81040194600F077BC00BF10B50368BE
:108C50000F4A5B6882B093428DF8071012D1044628
:108C60004FF0FF31D0F8A40000F0A2FF9DF80730CC
:108C700084F85D30226901231846C2F848359360B4
:108C800002B010BD01220DF10701984702B010BDDE
:108C9000958C02002DE9F04716460AB30746884630
:108CA00000F15D0A00254FF00109741B402C28BF1C
:108CB00040244FF0FF31D7F8A40000F079FF08EB13
:108CC00005012246504603F04FFE25443B69AE4263
:108CD000C3F84845C3F80890E7D82846BDE8F087B0
:108CE00015462846BDE8F087036870B51B6A744DC9
:108CF000AB4240F0AE800A4690F8A310044600292B
:108D000040F09F80036990F89F00C3F80C0594F829
:108D10009E00C3F8140594F8A200012800F09D807D
:108D2000C3F86C15B2F5966F45D9B2F5166F40F2DF
:108D30009F80B2F5965F40F29E80B2F5165F40F2DA
:108D40009C80B2F5615F40F29A80B2F5964F40F296
:108D50009880B2F5E14F40F2968047F612218A42A0
:108D600040F29380B2F5164F40F292804DF6C0214A
:108D70008A4240F29080B2F5614F40F28F80B2F5A6
:108D8000963F40F28E80B2F5E13F40F28C80B2F522
:108D9000613F40F28B804B498A4240F28D80B2F5B0
:108DA000E12F40F28680B2F5612F94BF4FF07062E0
:108DB0004FF0805201E04FF49E2294F99D00C3F8D9
:108DC0002425082104F15D020025C3F800150028C0
:108DD000C3F8442504F15C01C3F820514FF00102AF
:108DE0004FF48875C3F83415C3F838251A60C3F8F2
:108DF000045327DB344D410900F01F062B18603166
:108E0000B240602045F8212083F8000394F99D309A
:108E1000002B07DB2C4903F01F0001225B09824075
:108E200041F8232003220021012000F043FB00230E
:108E30001A461946C4F8A40000F07EFB012384F80A
:108E4000A33070BD214A00F00F031A44602313764B
:108E5000DCE7BDE870400022184794F8A010C3F882
:108E6000101594F8A110C3F80815C3F86C0559E75C
:108E70004FF41D22A1E7164A9FE7164A9DE7164ABE
:108E80009BE7164A99E7164A97E74FF4000294E7E2
:108E90004FF41D0291E74FF465028EE74FF46B0229
:108EA0008BE7104A89E74FF0EB7286E74FF06C7260
:108EB00083E74FF0E86280E74FF080627DE700BF14
:108EC000E98E020090D0030000E100E0FCEC00E03D
:108ED00000B013000050270000F03A0000A04E0040
:108EE00000C0750000903A0190F8A330002B40F0CC
:108EF000B08070B50369044690F89F00C3F80C0574
:108F000094F89E00C3F8140594F8A20001284AD0F2
:108F1000B1F5966FC3F86C2554D9B1F5166F40F2D0
:108F2000A080B1F5965F40F29F80B1F5165F40F2E8
:108F30009D80B1F5615F40F29B80B1F5964F40F2A4
:108F40009980B1F5E14F40F2978047F612229142A5
:108F500040F29480B1F5164F40F293804DF6C02256
:108F6000914240F29180B1F5614F40F29080B1F5AD
:108F7000963F40F28F80B1F5E13F40F28D80B1F530
:108F8000613F40F28C804A4A914240F28E80B1F5B6
:108F9000E12F40F28780B1F5612F94BF4FF07062EE
:108FA0004FF0805210E094F8A000C3F8100594F838
:108FB000A100C3F8080542F00102B1F5966FC3F8AD
:108FC0006C25AAD84FF49E2294F99D00C3F824255D
:108FD000082104F15D020025C3F800150028C3F83C
:108FE000442504F15C01C3F820514FF001024FF415
:108FF0008875C3F83415C3F838251A60C3F80453CC
:1090000028DB2C4D410900F01F062B186031B240BF
:10901000602045F8212083F8000394F99D30002B4F
:1090200007DB244903F01F0001225B09824041F85D
:10903000232003220021012000F03CFA00231A46DD
:109040001946C4F8A40000F077FA012384F8A3308D
:1090500070BD7047184A00F00F031A44602313765E
:10906000DBE74FF41D22AFE7144AADE7144AABE744
:10907000144AA9E7144AA7E7144AA5E74FF40002E7
:10908000A2E74FF41D029FE74FF465029CE74FF4FF
:109090006B0299E70E4A97E74FF0EB7294E74FF0B7
:1090A0006C7291E74FF0E8628EE74FF080628BE7D9
:1090B00090D0030000E100E0FCEC00E000B0130001
:1090C0000050270000F03A0000A04E0000C07500DC
:1090D00000903A0108B5054B1BB10548FFF724FD88
:1090E00000B908BDAFF3008008BD00BF000000005C
:1090F000443A002010B5114C2369D3F810213AB13D
:109100000022C3F81021D3F83C2572B901221A605D
:10911000D3F8202102B910BD0021D4F8A400C3F86F
:109120002011BDE8104000F0B7BB94F85C1004F1CA
:109130001400FFF7D9FC2369E8E700BF303A0020AC
:1091400038B50E4C0E4A20464FF47A73002540F88D
:10915000142BC4E90153FFF7BBFC0A4B0A481A6AF7
:109160009B6984F89F300221A4F8A250C4F8A4504F
:10917000206184F89D1084F89E2038BD303A00208C
:10918000F0F502005CF502000020004000B97047D5
:1091900004F03EB9F8B50026C0E9006604468660D2
:1091A00079B108460D4604F0B5F90746013000F0E4
:1091B000DFF830B1C4E900070670A760294604F063
:1091C000A1F92046F8BD00BF10B50446006800F0C4
:1091D000E9F8204610BD00BF70B50446E1B108466D
:1091E0000D4604F097F92368064613B16268904271
:1091F0000BD91846711C00F0EBF8034660B1A26869
:10920000C4E900060AB902702368A6602946184618
:1092100004F078F9204670BD206808B100F0C2F86B
:109220000023C4E901332360204670BD826808B57D
:109230000B463AB161B1006804F05AF9B0FA80F017
:10924000400908BD31B11878B0FA80F0400908BD76
:109250000368F8E7012008BD08B58A68836893426F
:1092600009D3006830B1096839B104F05BF9B0FA8C
:1092700080F0400908BD002008BD084608BD00BFB9
:109280009A422DE9F0411746984604460D4601D909
:10929000474690460026C4E90066A660012000F01B
:1092A00067F808B120600670AE68BE4202D820465A
:1092B000BDE8F08146452B6828BF4646002213F8DA
:1092C00006809A55296820463944FFF785FF2B68A8
:1092D00003F806802046BDE8F08100BF2DE9F0418B
:1092E0000768E7B184680646CCB1B846454618F829
:1092F000010B03F021FB0028F8D1013C3C4402E0C3
:10930000A54205D8013C207803F016FB0028F7D1D0
:10931000621C521BAF42B26003D30023BB54BDE8B2
:10932000F0813846294603F01FFB3768B268F4E73E
:10933000006808B103F0AFBA704700BF08B501F08C
:1093400043F84FF47A73A0FB0323900A40EA83505A
:1093500008BD00BF08B5014600238002890D4FF407
:109360007A7203F017F9BDE8084001F065B900BF53
:1093700010B5044601F0BCFB022804D02046BDE82D
:10938000104003F0E1BA01F017F8204603F0DCFAD0
:10939000044601F0C1F80CB1204610BD02F02AFCD1
:1093A000FAE700BF10B5044601F0A2FB02280AD17B
:1093B00044B101F001F8204603F0CEFABDE81040B8
:1093C00001F0AAB810BD2046BDE8104003F0C4BAB1
:1093D00010B582B00446019101F08AFB0228019980
:1093E00005D0204602B0BDE8104004F035B800F0CA
:1093F000E3FF2046019904F02FF8044601F08CF8B1
:1094000014B1204602B010BD02F0F4FBF9E700BF32
:1094100010B582B0019000F0CFFF019803F094FAEC
:10942000044601F079F814B1204602B010BD02F0F4
:10943000E1FB204602B010BD50B110B5044600F06B
:10944000BBFF204603F088FABDE8104001F064B885
:10945000704700BF38B51C469DF8105043B3002933
:1094600008BF1A460123C4E90F01226084F8463080
:1094700001F004FED4E90F132268A26001FB03F19E
:10948000CB1A134400200A44FF21A063E36084F850
:109490004410626084F8451004F1100002F0FAFDF7
:1094A00004F1240002F0F6FD01F0F2FD84F84C50C6
:1094B000204638BDF8B5064617460D4669B100FB93
:1094C00001F05030FFF7A4FF044690B3002200F1F2
:1094D000500380F84620036007E05020FFF798FF14
:1094E000044630B384F846502460C4E90F6501F0A7
:1094F000C5FDD4E90F132268A26001FB03F1CB1A6A
:10950000134400200A44FF21A063E36084F8441060
:10951000626084F8451004F1100002F0BBFD04F114
:10952000240002F0B7FD01F0B3FD84F84C70204632
:10953000F8BD00242046F8BD2DE9F047044684B06C
:109540001F460192884600F1240601F097FDA26BA8
:10955000E36BDFF840939A424FF0000A7CD3022F6E
:1095600000F0E880019D002D00F0128102ADBAF1FB
:10957000000F00F0DB8001F08BFD00F01DFF01F01B
:109580007DFD94F84430FF2B04BF002384F8443061
:1095900094F84530FF2B04BF002384F8453001F0D8
:1095A00077FD284601A901F04DFA002840F0F68029
:1095B00001F064FDA26BE36B9A4261D001F068FD9B
:1095C00001F05CFD94F845506DB2002D05DC12E011
:1095D0006B1E13F0FF0F5DB20DD0636A304653B1BE
:1095E00001F0D2F90028F3D001F060FA6B1E13F0FD
:1095F000FF0F5DB2F1D1FF2384F8453001F048FD43
:1096000001F03CFD94F844506DB2002D15DD04F1DD
:10961000100A04E06B1E13F0FF0F5DB20DD023693A
:10962000504653B101F0B0F90028F3D001F03EFAF2
:109630006B1E13F0FF0F5DB2F1D1FF2384F84430AD
:1096400001F026FD00F068FF01F018FDA26BE36B4E
:109650009A424FF0010A82D2226CA56B002A40F098
:10966000E7802668002E00F0F9800135A563636A63
:10967000002B7CD101F00CFD012004B0BDE8F08787
:1096800004F1100A01F004FD0199504601F000F9BF
:1096900001F0F4FC94F845506DB2002D05DC12E0A9
:1096A0006B1E13F0FF0F5DB20DD0636A304653B1ED
:1096B00001F06AF90028F3D001F0F8F96B1E13F0FD
:1096C000FF0F5DB2F1D1FF2384F8453001F0E0FCDB
:1096D00001F0D4FC94F844506DB2002D05DC12E08A
:1096E0006B1E13F0FF0F5DB20DD02369504653B1CE
:1096F00001F04AF90028F3D001F0D8F96B1E13F0FD
:10970000FF0F5DB2F1D1FF2384F8443001F0C0FCBB
:1097100000F002FF002897D14FF08053C9F80430C1
:1097200040BFBFF34F8FBFF36F8F8DE7284601F027
:109730007DF920E7226CA56B002A92D04146E068B3
:1097400003F012F9226CE36821689B1A8B42E360F4
:10975000C2F1000204D263681A44E260022F84D18D
:10976000002D83D10123A363636A002B82D004F10F
:10977000240001F009F900283FF47CAF454B4FF07D
:1097800080525A6040BFBFF34F8FBFF36F8F71E7B6
:1097900001F07EFC284604B0BDE8F08701F06EFCC5
:1097A00094F845506DB2002D15DD04F1240604E057
:1097B0006B1E13F0FF0F5DB20DD0636A304653B1DC
:1097C00001F0E2F80028F3D001F070F96B1E13F0FD
:1097D000FF0F5DB2F1D1FF2384F8453001F058FC52
:1097E00001F04CFC94F844506DB2002D15DD04F1ED
:1097F000100604E06B1E13F0FF0F5DB20DD023695D
:10980000304653B101F0C0F80028F3D001F04EF912
:109810006B1E13F0FF0F5DB2F1D1FF2384F84430CB
:1098200001F036FC00F078FE002004B0BDE8F087BF
:10983000414607BBA06803F097F8A368216C6268F3
:109840000B449342A360FFF410AF0135A563636A34
:109850002268A260002B3FF40DAF88E760680135F5
:1098600001F09CF9A563636A6660002B7FF47FAF0B
:10987000002883D1FEE6E06803F076F8226CE36806
:1098800021689B1A8B42E360C2F10002BFF466AF0D
:1098900061E700BF00ED00E010B582B0EFF3118486
:1098A000402383F31188836BC26B9A420FD990F8DF
:1098B00045200133FF2A836353B20DD001335BB2DD
:1098C00080F84530012084F3118802B010BD0020DB
:1098D00084F3118802B010BD436A002BF2D024300B
:1098E000019101F051F80028ECD001990029E9D04C
:1098F00001200860ECE700BF2DE9F043044685B085
:109900000F46019201F0BAFBA56B002D40F02781B4
:10991000019B002B00F0D28002A801F087F8DFF84D
:109920008C8204F1240601F0B3FB00F045FD01F048
:10993000A5FB94F84430FF2B04BF002384F8443087
:1099400094F84530FF2B04BF002384F8453001F024
:109950009FFB01A902A801F075F800285BD101F076
:109960008DFBA36B002B40F0AF8001F091FB0199C0
:10997000304600F08DFF01F081FB94F845506DB248
:10998000002D05DC12E06B1E13F0FF0F5DB20DD051
:10999000636A304653B100F0F7FF0028F3D001F0BE
:1099A00085F86B1E13F0FF0F5DB2F1D1FF2384F831
:1099B000453001F06DFB01F061FB94F844506DB24D
:1099C000002D15DD04F1100904E06B1E13F0FF0FEC
:1099D0005DB20DD02369484653B100F0D5FF002891
:1099E000F3D001F063F86B1E13F0FF0F5DB2F1D1FD
:1099F000FF2384F8443001F04BFB00F08DFD00287C
:109A000053D14FF08053C8F8043040BFBFF34F8F9D
:109A1000BFF36F8F49E001F031FB94F845506DB210
:109A2000002D05DC12E06B1E13F0FF0F5DB20DD0B0
:109A3000636A304653B100F0A7FF0028F3D001F06D
:109A400035F86B1E13F0FF0F5DB2F1D1FF2384F8E0
:109A5000453001F01DFB01F011FB94F844506DB24C
:109A6000002D15DD04F1100904E06B1E13F0FF0F4B
:109A70005DB20DD02369484653B100F085FF002840
:109A8000F3D001F013F86B1E13F0FF0F5DB2F1D1AC
:109A9000FF2384F8443001F0FBFA00F03DFD01F0B3
:109AA000EDFAA36B53B101F0F3FA01F0E7FAA56BFD
:109AB000002D54D1019B002B7FF435AF01F0E8FA63
:109AC000002005B0BDE8F08301F0E2FA01F0D6FA1B
:109AD00094F845506DB2002D05DC12E06B1E13F0BA
:109AE000FF0F5DB20DD0636A304653B100F04CFFFA
:109AF0000028F3D000F0DAFF6B1E13F0FF0F5DB209
:109B0000F1D1FF2384F8453001F0C2FA01F0B6FA32
:109B100094F844506DB2002D15DD04F1100904E0F5
:109B20006B1E13F0FF0F5DB20DD02369484653B191
:109B300000F02AFF0028F3D000F0B8FF6B1E13F0EE
:109B4000FF0F5DB2F1D1FF2384F8443001F0A0FA99
:109B500000F0E2FC01F092FAA56B002DAAD0226C75
:109B600052B1E168636811449942E16024BF216801
:109B7000E160384602F0F8FE013DA56323692BB988
:109B800001F086FA012005B0BDE8F08304F1100071
:109B900000F0FAFE0028F3D0044B4FF080525A60D8
:109BA00040BFBFF34F8FBFF36F8FE9E700ED00E0D9
:109BB0002DE9F043044685B000F12406019101F03F
:109BC0005DFAA36BDFF8DC820027B946002B40F07A
:109BD000D780019D002D00F0418102ADB9F1000F49
:109BE00000F0DE8001F054FA00F0E6FB01F046FAE6
:109BF00094F84430FF2B04BF002384F8443094F8D9
:109C00004530FF2B04BF002384F8453001F040FAB3
:109C1000284601A900F016FF00285FD101F02EFAB6
:109C2000A36B002B40F0C88001F032FA2368002BB0
:109C300000F01B810199304600F02AFE01F01EFA67
:109C400094F845506DB2002D05DC12E06B1E13F048
:109C5000FF0F5DB20DD0636A304653B100F094FE41
:109C60000028F3D000F022FF6B1E13F0FF0F5DB24F
:109C7000F1D1FF2384F8453001F00AFA01F0FEF932
:109C800094F844506DB2002D15DD04F1100904E084
:109C90006B1E13F0FF0F5DB20DD02369484653B120
:109CA00000F072FE0028F3D000F000FF6B1E13F0EE
:109CB000FF0F5DB2F1D1FF2384F8443001F0E8F9E1
:109CC00000F02AFC002853D14FF08053C8F804302C
:109CD00040BFBFF34F8FBFF36F8F49E001F0CEF964
:109CE00094F845506DB2002D05DC12E06B1E13F0A8
:109CF000FF0F5DB20DD0636A304653B100F044FEF1
:109D00000028F3D000F0D2FE6B1E13F0FF0F5DB2FF
:109D1000F1D1FF2384F8453001F0BAF901F0AEF932
:109D200094F844506DB2002D15DD04F1100904E0E3
:109D30006B1E13F0FF0F5DB20DD02369484653B17F
:109D400000F022FE0028F3D000F0B0FE6B1E13F0EE
:109D5000FF0F5DB2F1D1FF2384F8443001F098F990
:109D600000F0DAFB01F08AF9A36BEBB101F090F996
:109D700001F084F9A36B4FF00109002B3FF429AFE8
:109D80002268013BA363002A00F088802369002B2E
:109D900074D101F07DF90127384605B0BDE8F083A4
:109DA000284600F043FE1DE701F072F9002F4AD16A
:109DB000384605B0BDE8F08301F06AF901F05EF9BC
:109DC00094F845506DB2002D05DC12E06B1E13F0C7
:109DD000FF0F5DB20DD0636A304653B100F0D4FD81
:109DE0000028F3D000F062FE6B1E13F0FF0F5DB28F
:109DF000F1D1FF2384F8453001F04AF901F03EF932
:109E000094F844506DB2002D15DD04F1100904E002
:109E10006B1E13F0FF0F5DB20DD02369484653B19E
:109E200000F0B2FD0028F3D000F040FE6B1E13F0EE
:109E3000FF0F5DB2F1D1FF2384F8443001F028F91F
:109E400000F06AFB94E701F019F9616A19B1236B1C
:109E50001968C1F10501606800F0D0FE01F018F941
:109E60000027384605B0BDE8F08301F007F96068C7
:109E700000F04EFE074601F00BF9DBE604F110009E
:109E800000F082FD002884D0064B4FF080525A60CB
:109E900040BFBFF34F8FBFF36F8F7AE700F0E8FE4C
:109EA000606073E700ED00E010B5044682B001F099
:109EB000E5F8A06B019001F0EBF8019802B010BD3D
:109EC000104B5A68904208D0DA68904208BF0122CD
:109ED00004D090F8463093B170470022002110B4AE
:109EE00003EBC20443F8321090F84630616013B1BE
:109EF0005DF8044B70475DF8044BFFF79DBAFFF720
:109F00009BBA00BFF0440020074B1A681AB19A6848
:109F100002B17047012210B403EBC20443F83210BF
:109F200060605DF8044B7047F044002070B5044653
:109F30000E46154601F0A2F894F84430FF2B04BFFA
:109F4000002384F8443094F84530FF2B04BF0023ED
:109F500084F8453001F09CF8A36B002B45D001F04C
:109F60008DF894F845506DB2002D15DD04F12406EE
:109F700004E06B1E13F0FF0F5DB20DD0636A304634
:109F800053B100F001FD0028F3D000F08FFD6B1EEF
:109F900013F0FF0F5DB2F1D1FF2384F8453001F0DB
:109FA00077F801F06BF894F844506DB2002D15DD90
:109FB00004F1100604E06B1E13F0FF0F5DB20DD02C
:109FC0002369304653B100F0DFFC0028F3D000F0E5
:109FD0006DFD6B1E13F0FF0F5DB2F1D1FF2384F80E
:109FE0004430BDE8704001F053B82A46314604F1D0
:109FF000240000F089FCB2E72DE9F041044601F0AD
:10A000003DF8344A344D1368013313602B68002B3C
:10A0100030D0324E336833B3E36A31483149076890
:10A020000A689F4238BF03602F48013203EB830365
:10A030000A6000EB8300E263211D02F03BF801F0AF
:10A0400027F833686BB12A68E36AD26A9A4208D269
:10A05000264B4FF080525A6040BFBFF34F8FBFF383
:10A060006F8FBDE8F0812A68E36AD26A9A4298BF8E
:10A070002C60D2E72C601368012B02D0E36A174EE4
:10A08000CBE71948DFF89080194F144E02F002F820
:10A09000184801F0FFFF184801F0FCFF174801F0D5
:10A0A000F9FF174801F0F6FF404601F0F3FF38468C
:10A0B00001F0F0FF134801F0EDFF134801F0EAFF53
:10A0C000124801F0E7FF124B124AC2F800801F60ED
:10A0D000E36AA2E7483B0020D83A0020A83B0020D2
:10A0E0005C3B0020583B0020E43A002000ED00E0FB
:10A0F000743B0020F83A00200C3B0020203B00205D
:10A10000343B0020943B0020C03B0020AC3B0020AF
:10A11000E03A0020DC3A0020603B00202DE9F843C3
:10A12000DDE909C4002C66D0BCF1000F60D00D46FB
:10A13000960098460223324684F85130A5210746FE
:10A14000C4F830C0604602F037FC2A7884F8342026
:10A15000236B2978321F1A4422F0070601B36B786B
:10A1600084F835306B78DBB1AB7884F83630AB7877
:10A17000B3B1EB7884F83730EB788BB12B7984F876
:10A1800038302B7963B16B7984F839306B793BB116
:10A19000AB7984F83A30AB7913B1EB7984F83B3082
:10A1A000089D042D28BF04254FF00009E562656471
:10A1B000201D84F83B90C4F8489001F077FFC5F16A
:10A1C000050504F1180001F071FFC4F84C904246F7
:10A1D0003946A561246184F850906462304600F0ED
:10A1E00011FF20602046FFF707FF2046BDE8F883F7
:10A1F0006046BDE8F8832046BDE8F8832DE9F047C6
:10A200009600804630460D469946FFF701F9002832
:10A2100062D007465420FFF7FBF8044600285FD0C1
:10A2200000230763324684F851303846A52102F0F6
:10A23000C3FB2B7884F834302B78D4F830A003B3E8
:10A240006B7884F835306B78DBB1AB7884F83630D6
:10A25000AB78B3B1EB7884F83730EB788BB12B79EE
:10A2600084F838302B7963B16B7984F839306B79A5
:10A270003BB1AB7984F83A30AB7913B1EB7984F820
:10A280003B30089D042D28BF04250027E562656446
:10A29000201D84F83B70A764043E01F007FFC5F160
:10A2A000050504F11800564401F000FFE764A561BC
:10A2B00026F0070084F85070246164624A464146E3
:10A2C00000F0A0FE099B206003B11C602046FFF750
:10A2D00093FE0120BDE8F0874FF0FF30BDE8F08726
:10A2E0003846FFF7A9F84FF0FF30F3E770B584B0B8
:10A2F000002503AA02A901A8CDE9015501F07CFCC3
:10A30000019C002C46D00298002843D0039E206375
:10A310000223B6003246A52184F8513002F04CFBEE
:10A32000206B1F4B6363043E0644C4E91155201D96
:10A3300084F8385084F83B50E56201F0B7FE04F130
:10A34000180001F0B3FE26F0070605231549A361A6
:10A350002A46E56430462461646284F8505000F077
:10A3600051FE20602046FFF747FE0F4B1C6000F0B7
:10A37000EFFD012811D1402383F311880B490C4ACA
:10A380000C4B4FF0FF340C6010601D6000F050FE6D
:10A3900004B070BD044B00221A6004B070BD00BF51
:10A3A00049444C45BDA60200883B00208C3B002060
:10A3B000A83B0020D43B0020024A136801331360FD
:10A3C000704700BF543B0020014B1868704700BF26
:10A3D000D43B0020024A136818441060704700BF45
:10A3E000D43B00202DE9F04F404B1B6883B0002B7D
:10A3F00046D13F4B1E6801361E60002E4ED0DFF85E
:10A4000008B1DBF80030B3425FD83A4F3B681D68B3
:10A41000002D65D0DFF8F480DFF8F4A0DFF8F490C9
:10A42000002522E0019101F06DFEA36A019904F17B
:10A43000180013B101F066FE0199E36AD8F8002014
:10A4400003EB830093420AEB800088BFC8F800301A
:10A4500001F030FED9F800203B68E16AD26A1B683F
:10A46000914228BF0125002B3AD03B68DB68DC68AD
:10A470006368211D9E420846D4D2CBF8003004E028
:10A480001D4A13680133136000251C4B1B68002B09
:10A490000CBF2846012003B0BDE8F08F154B184AC9
:10A4A0001868184914681C6010600A6801320A6054
:10A4B0001A6812685AB9DFF850B04FF0FF33CBF882
:10A4C0000030DBF80030B3429FD90025DDE71B6880
:10A4D000DFF834B0DB68DB685B68CBF8003090E70E
:10A4E0004FF0FF33CBF80030CFE700BF543B0020E4
:10A4F000D43B0020DC3A0020503B0020D83B002019
:10A50000E03A0020903B00208C3B00205C3B002088
:10A51000E43A0020D83A00202DE9F04F83B000F053
:10A52000ADFD3A4B1A68013A1A601B68002B55D1F1
:10A53000374B1B68002B51D0364D2B68002B62D057
:10A54000354EDFF8EC80354FDFF8E8904FF0010A28
:10A55000EB68DC6804F1040B04F1180001F0D2FD93
:10A56000584601F0CFFDE36A326803EB8300934263
:10A57000594608EB800088BF336001F09BFD3B68C3
:10A58000E26ADB6A9A4231D3C9F800A02B68002B3B
:10A59000DED1234B1A681268002A2FD01A68214B8B
:10A5A000D268D26852681A601F4E346844B10125DF
:10A5B000FFF718FF08B1C9F80050013CF8D134602A
:10A5C000D9F8003053B1194B4FF080525A6040BF58
:10A5D000BFF34F8FBFF36F8F012000E00020019089
:10A5E00000F056FD019803B0BDE8F08F2B68002BFA
:10A5F000AED10B4B1A681268002ACFD1094B4FF02D
:10A60000FF321A60D0E7DFF82C90CDE7543B0020F2
:10A61000483B0020943B00205C3B0020D83A0020BF
:10A62000DC3A00208C3B0020503B002000ED00E095
:10A63000E43A0020D83B002070B548B9184B4FF0E1
:10A6400080525A6040BFBFF34F8FBFF36F8F70BD12
:10A65000144A15491368154D013313600E680446FA
:10A660002868043001F04EFD2B68A4195C600FD2FD
:10A670000F4B18682968043101F02CFD0D4B1A6846
:10A68000944238BF1C60FFF747FF0028D6D070BD4A
:10A69000094B18682968043101F01CFDF3E700BF7D
:10A6A00000ED00E0543B0020D43B0020D83A0020CD
:10A6B000DC3A00208C3B0020E03A00202DE9F84FE6
:10A6C0003A4CDFF804913A4D3A4EDFF800813A4FA8
:10A6D000DFF8FCB02368EBB100F0D0FCD9F80C3007
:10A6E000D3F80CA00AF1040001F00CFD2B68013B2B
:10A6F0002B602368013B236000F0CAFC9AF85130BC
:10A70000002B34D0012BE5D15046FEF795FE23688F
:10A71000002BE1D13368012B08D94FF08053CBF8DF
:10A72000043040BFBFF34F8FBFF36F8F00F052FE76
:10A73000D8F800301BBB3B68DB6A002BCAD13368FA
:10A74000012BC7D81D4B1E4A1B6812689B1A012B90
:10A75000C0D91C4A136801331360D8F80030A3B184
:10A760003B68DB6A03B93368FFF7D6FEB2E7DAF875
:10A770003000FEF761FE5046FEF75EFEAAE73B683A
:10A78000DB6A002BA6D13368A4E73B68DB6A002BA9
:10A79000EAD13368012BE7D8084B1868084B1B68CF
:10A7A000C01A0128E0D900F0E3FCDDE74C3B0020B3
:10A7B000483B0020E43A0020D83A00208C3B00209F
:10A7C000D43B0020543B0020C03B00205C3B0020D9
:10A7D00000ED00E0294B1B681BB1294B01221A60D8
:10A7E0007047274A70B5274C1360226823681268A7
:10A7F0001B6B9A423CD9244D244B2A6802EB820001
:10A8000080009100185808BB501E00EB8006B6006F
:10A8100081009E5956BB901E00EB8006B600810059
:10A820009E591EBBD01E00EB8006B60081009E59CB
:10A83000E6B9101F00EB8006B60081009E59AEB944
:10A84000053A02EB8200800091001858114403EB96
:10A85000810003464168496841600833994204BF5A
:10A8600049684160CB6823602A6070BD0246EDE70D
:10A8700020682168343101F0BBF9BCE7543B00206B
:10A88000D83B0020D83A00205C3B0020E43A00206E
:10A8900070B5174D2B680C4603F1180101F01AFC36
:10A8A000144B1E682868043001F02CFC631C17D080
:10A8B0002B68A4195C6007D30F4B18682968BDE8A2
:10A8C0007040043101F006BC0C4B18682968043153
:10A8D00001F000FC0A4B1A68944238BF1C6070BD3E
:10A8E00029680848BDE87040043101F0E3BB00BFAF
:10A8F000D83A0020D43B0020E03A0020DC3A002087
:10A900008C3B0020AC3B002070B5194D2B681646DF
:10A910000C4603F1180101F0CDFB164B5EB11B682C
:10A920002868043001F0EEFB29681348BDE8704048
:10A93000043101F0BFBB1E682868043001F0E2FB5F
:10A940002B68A4195C6007D30C4B18682968BDE814
:10A950007040043101F0BEBB094B1868296804310E
:10A9600001F0B8FB074B1A68944238BF1C6070BDF9
:10A97000D83A0020D43B0020AC3B0020E03A002035
:10A98000DC3A00208C3B002030B5C368DC6804F161
:10A99000180583B0284601F0B5FB1C4B1B683BBB78
:10A9A000211D0846019101F0ADFB194AE36A1068C8
:10A9B00001998342174888BF136003EB830300EBC0
:10A9C000830001F077FB144BE26A1B68DB6A9A4252
:10A9D00082BF124B01201860114B1A68126898BF91
:10A9E000002052B90F4B4FF0FF321A6003B030BD58
:10A9F0000D48294601F05EFBE5E71A68094BD2686D
:10AA0000D26852681A6003B030BD00BF543B0020CA
:10AA10005C3B0020E43A0020D83A0020D83B0020DC
:10AA2000DC3A00208C3B0020943B0020034A044B7E
:10AA300012681B68C0E90023704700BF903B0020EC
:10AA4000D43B0020F0B50D4683B0044600F016FB61
:10AA50002B68144A591C10681DD0DFF84CC0D4E98B
:10AA60000061DCF80070BE4208D0814206D80120A7
:10AA7000019000F00DFB019803B0F0BD471ABB42F6
:10AA80000BD91B1A0B44DCF8001012682B60002055
:10AA9000C4E90012ECE70020EAE700232B60012064
:10AAA000E6E700BFD43B0020903B0020014B012291
:10AAB0001A607047D83B0020094B186818B9094B39
:10AAC0001B6813B1704700207047074A074B106896
:10AAD0001B68013B984214BF01200220704700BF51
:10AAE000943B0020D83B0020AC3B0020483B00209A
:10AAF000054B1B6833B1054B1B68002B0CBF0220B4
:10AB00000020704701207047A83B0020543B0020E4
:10AB100070B5044682B0C8B11D4DC36A2A68D26AB6
:10AB2000934215D28269002A04DB2A68D26AC2F1F4
:10AB300005028261174E626903EB830306EB830310
:10AB40009A420ED02B68DB6AE362012002B070BD2E
:10AB50002B68406CDC6AA0422CBF0020012002B0B0
:10AB600070BD211D0846019101F0CCFA2A680A4BFC
:10AB7000D06A1A680199E062904200D9186000EB2F
:10AB8000800006EB800001F095FA0120DEE700BFAF
:10AB9000D83A0020E43A00205C3B002068B130B590
:10ABA000836CC16A426C013B914283B0044683646A
:10ABB00000D023B1002003B030BD00207047011D3C
:10ABC0000846019101F09EFA0A4A636C1068E3623C
:10ABD0008342094888BF1360C3F1050503EB830373
:10ABE00000EB83000199A56101F064FA012003B034
:10ABF00030BD00BF5C3B0020E43A002070B130B5AE
:10AC0000426CC36A914238BF11468B4283B00446FE
:10AC100002D0826C012A02D003B030BD7047826935
:10AC2000114DC162002A03EB83034269A8BFC1F141
:10AC3000050105EB8303A8BF81619A42ECD1011D98
:10AC40000846019101F05EFA084BE06A1A68019922
:10AC5000904288BF186000EB800005EB800003B0D5
:10AC6000BDE8304001F026BAE43A00205C3B002009
:10AC7000044B1A681AB119688A6C01328A64186820
:10AC8000704700BFD83A00202DE9F0431D4EDFF891
:10AC90007C9085B04FF000080CE0DB68DC681F6832
:10ACA000251D284601F02EFA636A20469847E3697D
:10ACB000012B0AD033681A68002AEED1124A1168B3
:10ACC0003160136005B0BDE8F083A3693B449F4247
:10ACD000294610D3D9F80030002BEBD0CDE90087FE
:10ACE0000294FFF705FF0023D9F800001A466946D1
:10ACF000FEF722FCDEE730686360246101F0EAF9C8
:10AD0000D8E700BFDC3B0020E03B0020603E002095
:10AD10002DE9F04F894E8A4CDFF82C82894DDFF8FF
:10AD20002CA28BB03368D3F800B0BBF1000F00F059
:10AD3000A980DB68D3F800B0FFF73EFBFFF744FBC8
:10AD400022688242814600F2AE808345206040F254
:10AD5000BF8000222868ABEB0901FFF7E7F8FFF797
:10AD6000DBFB40B94FF08053CAF8043040BFBFF35B
:10AD70004F8FBFF36F8F2868002202A9FEF7BCFD3A
:10AD80000028CFD0029B002B73DBDDF81090D9F8A0
:10AD900014301BB109F1040001F0B4F9FFF714FB02
:10ADA000236898420746C0F08580029B2760092BE4
:10ADB000E1D801A252F823F0E1AD0200E1AD0200BA
:10ADC000E1AD020077AD02003BAE020063AE0200CF
:10ADD000E1AD0200E1AD020077AD02003BAE020042
:10ADE0000398D9F81830C9F81090C2182CBF012167
:10ADF0000021BA42C9F804205FD8381A834228D803
:10AE0000D9F8243048469847D9F81C302868012BD7
:10AE1000B2D10028B0D0D9F81820039B00211344E8
:10AE2000CDE907390691FFF763FE002328681A462B
:10AE300006A9FEF781FB28689EE7039BC9F81090DE
:10AE4000DA19BA42C9F81830C9F8042039D8002BE9
:10AE500091D0D8F8000009F1040101F03BF928680D
:10AE60008AE799F82C30002B85D14846FEF7E4FAA2
:10AE700081E7039BDDE904019847029B002BFFF665
:10AE80007AAF82E7FFF798FAFFF79EFA22689042BE
:10AE9000814608D3D8F80020C4F800901268B2FAAE
:10AEA00082F2520956E7FFF7EFFEC4F80090FFF771
:10AEB00033FB60E7FFF7E8FE77E7B84201D90029E6
:10AEC0009ED0306809F1040101F004F9286853E7C5
:10AED000FFF722FB3268D268D768391D0846019116
:10AEE00001F010F9F8690199012803D07B6A38460E
:10AEF000984740E7BA693F610BEB0200484578602C
:10AF000003D9306801F0E6F8F0E7A9EB0B039A42A9
:10AF10000FD82B68002BE9D00023CDE9063B08971A
:10AF2000FFF7E6FD002328681A4606A9FEF704FB92
:10AF3000DCE7D8F8000001F0CDF8D7E7DC3B0020D3
:10AF40000C3E0020603E0020E03B002000ED00E0D1
:10AF5000F0B51F4C89B000F091F82568F5B100F00C
:10AF600097F82068C0B1002407AA06A905A8CDE972
:10AF7000054400F04FFEDDE905310222CDE9002154
:10AF80000293079A134914482346FFF7C7F8134B57
:10AF90001860001B18BF012009B0F0BD104F114E02
:10AFA000384601F077F8304601F074F80E4A0F4940
:10AFB00000950F4B17600E600E4A10212020FEF7FF
:10AFC00049FA20600028CAD00B49FEF79DFFC6E76A
:10AFD000603E002024F6020011AD0200643E002015
:10AFE000E43D0020F83D0020DC3B0020E03B002059
:10AFF000103E0020E43B00201CF60200402383F3B7
:10B000001188FEE730B46FF00203084C40F80C4C96
:10B010004FF0807540F8045C40F8081C40F8202C84
:10B0200040F8243C30BC4438704700BFFDAF0200FC
:10B030000F4C08B5E02384F8223000F07BF80D4B6C
:10B040000D4A00211960D4F8883043F47003C4F825
:10B050008830536843F040435360236943F0100342
:10B06000236100F065F9402383F31188FEE700BFF8
:10B0700000ED00E0683E002030EF00E0402383F365
:10B080001188024A1368013313607047683E00203C
:10B09000034A1368013B13600BB983F311887047AF
:10B0A000683E002041DF704712DF704770B51D4BCE
:10B0B00000221A6082B01B680193019BEFF3118696
:10B0C000402383F311881849184BD1F804451A60BE
:10B0D0001B680093009BFFF777F9201A20F07F434D
:10B0E00023F0010320F07F459BB96C1E6DB1002554
:10B0F000FFF778F9013C631C45EA0005F8D125B15A
:10B100000B4B4FF080525A6040BF86F3118802B05B
:10B1100070BDFFF7EDFC0228E7D0FFF763F90546A5
:10B12000EDE700BF40110140001001400011014057
:10B1300000ED00E00B4B0C4930B41F200B4DC3F861
:10B14000080501220224E020C3F804232A601A60C3
:10B15000C3F8444381F811034FF400330B6030BC53
:10B16000704700BF0010014000E100E008100140FE
:10B170002DE9F041054684B0EFF3108272B6614CC0
:10B18000A36883B9604B61480121A160D3F88010A6
:10B1900001402160C3F88000D3F8841061604FF053
:10B1A000FF31C3F8841002B962B6594ED6F804854F
:10B1B000FFF782FC78B3574F574AAF4228BF2F465C
:10B1C00007EB080323F07F4301214FF0000CC6F882
:10B1D0000813C6F84035C2F800C0136801934FF455
:10B1E00080330198C6F80433BFF34F8F25BBC6F8F0
:10B1F000083315601268494B0392039A1D601B685F
:10B200000293414B029AC6F804134FF40032D6F869
:10B210000415C3F88021A3685BB1EFF3108272B606
:10B22000394B21681960616859600023A36002B935
:10B2300062B604B0BDE8F081F1EE103A23F09F034E
:10B24000E1EE103AF1EE103A2F4D4023C5F884316B
:10B2500003A88DF80CC0FFF727FF9DF80C30002BDA
:10B260004DD12B4620BFD3F80011D3F804210A4357
:10B27000F8D0274B2848294A4FF48031C3F80813E7
:10B280000021016000680390039811601268029227
:10B2900001220299C3F80423D3F804351A4AA3EB18
:10B2A000080828F07F48474528BF47464FF4003339
:10B2B000012FC2F8803120D9781EFFF78BF8184B88
:10B2C000DB68DA010FD5174A1368DB070BD5164B7D
:10B2D000516803FB07F7A7F57427A7F51077BF0A96
:10B2E00001EB87175760FFF77DF8002893D00F4BCD
:10B2F0004FF080525A6040BF8DE7F4D08BE7FFF7E4
:10B30000D1FEB6E70045002000E100E0FC06FFBDED
:10B3100000100140FDFFFF004011014000110140FD
:10B32000F0ED00E0001000E040420F0000ED00E012
:10B330000748006880F3088862B661B6BFF34F8F94
:10B34000BFF36F8F4FF0E00080F3118800DF00BF84
:10B3500000600200064B19680868B0E8F04F80F3FF
:10B360000988BFF36F8F4FF0000080F3118870479A
:10B37000D83A0020EFF30980BFF36F8F144B1A689F
:10B380001EF0100F08BF20ED108A20E9F04F10606A
:10B390004DF8043D4FF0400080F31188BFF34F8F0C
:10B3A000BFF36F8FFFF716FA4FF0000080F311889C
:10B3B00008BC19680868B0E8F04F1EF0100F08BF0D
:10B3C000B0EC108A80F30988BFF36F8F704700BF1D
:10B3D000D83A0020704700BF0A490B4A0B4B9B1A12
:10B3E00003DD043BC858D050FBDC094809494FF045
:10B3F000AD32026004300439FBD100F029FAFAF7CB
:10B4000027FF00001CF90200003600203C38002015
:10B4100000F8002000080000FEE7FEE7FEE7FEE778
:10B42000FEE7FEE7FEE7FEE7FEE7FEE708B5FBF70F
:10B430008FF9114BBBB1114B63B1FAF7A9FF00F0C3
:10B44000CBFBFDF747FEFAF7A3FF00F0C5FBFDF7C6
:10B4500041FEF2E7FAF79CFF00F0BEFBFAF798FF17
:10B4600000F0BAFBF6E7FAF793FF00F0B5FBFAF746
:10B470008FFF00F0B1FBF6E700000000D59002005E
:10B4800000B583B000F03CFCFDF76EF90E4B019364
:10B4900001230E4900934FF4806200230C48FEF70D
:10B4A000ADFE4FF4407000F007FCFEF71FFFBFF346
:10B4B0004F8F0849084BCA6802F4E0621343CB601F
:10B4C000BFF34F8F00BFFDE76C3E00202CF602005B
:10B4D0002DB4020000ED00E00400FA05FDF748BFBE
:10B4E000FDF760BF084A094908B513681844884247
:10B4F00002D81060184608BD01F0E0F90C23036083
:10B500004FF0FF33184608BD4036002000F80020F9
:10B510002DE9F04F0479694DC4EBC40605EB8606AE
:10B5200085B0377D0193002F40F0AC800F7C032F56
:10B5300000F2A480D1F800E00068BEF1FF0F4FEAEE
:10B54000C40600F0AE8091F813804FF0A0490EF5CC
:10B55000E07C4FEA082849F82C80D1F80480B8F143
:10B56000FF0F00F09B804FF0A04908F5E07C4FF002
:10B57000000A49F82CA0D1F80CB091F812C00BF5D4
:10B58000E0794FF0A04A4FEA8C0C4AF829C0D1F874
:10B59000089009F5E0734FF0000C4AF823C0C0F89A
:10B5A0000895C0F81085C0F80CE5C0F814B5C0F8CF
:10B5B00034C5C0F838C5C0F844C5C0F848C591F8CE
:10B5C00011C0BCF1000C18BF4FF0010C022F71D05C
:10B5D000032F6CD0012F67D0C0F854C50F7DC0F881
:10B5E0005C754F7DC0F8C0754FF0000CC0F804C109
:10B5F000D0F804710397039FC0F828C1D0F82871D0
:10B600000297029FD0F800E2019B371B05EB8707EA
:10B610004EF0040EC0F800E2BA6040F2024E40F371
:10B62000073287F815C0BB61C0F804E362458B7D23
:10B630004FEA10372ADB5109890002F1604201F11B
:10B64000604102F5614201F561414FF0010C5B017F
:10B6500007F01F07DBB20CFA07F782F80033C1F8D6
:10B6600080710F60341B022305EB8405C0F80035A0
:10B67000134801222A7505B0BDE8F08F114805B0C6
:10B68000BDE8F08F104805B0BDE8F08F0F4A07F015
:10B690000F075B013A44DBB21376E3E74FF0FF3864
:10B6A00069E74FF0FF3E58E74CF0020C94E74CF08E
:10B6B000060C91E74CF0040C8EE700BF703E0020B2
:10B6C0000000AD0B0400AD0B0500AD0BFCEC00E081
:10B6D00070B5047984B044BB089CFF2C25D8FF2AA0
:10B6E00023D821B101F06044B4F1005F20D123B12F
:10B6F00003F06044B4F1005F1AD11C4C667D012E4A
:10B70000F5B227D017D822600125089A0068626038
:10B710006575627D022AC4E90313D3B210D0032BEE
:10B720001CD0AB4218D0124800E0124804B070BDE3
:10B73000114804B070BD023D012DE4D90F48F5E772
:10B7400000238DF8043002930393A169A36801A834
:10B750009847E8E70A48E9E74362E4E7D0F83C2580
:10B760008DF80450D0F84C350292EDE7703E002081
:10B770000000AD0B0600AD0B0A00AD0B0100AD0BD8
:10B780000500AD0B30B54FF0402387B0D3F828212A
:10B790005AB10020C3F82801D3F828112B4A02918E
:10B7A0000299517D0129CCB211D04FF04023D3F83A
:10B7B000042152B10022C3F80421D3F80411234A12
:10B7C00001910199517D02291AD007B030BD11684D
:10B7D000D568C3F84455C3F8481511695568C3F8CE
:10B7E00034150221C3F838559C625175547D022CE2
:10B7F000E1B21BD0032924D00129D6D15962D4E764
:10B8000003215175517D0129C8B218D00328DCD11C
:10B8100001218DF80C10D3F83C15D3F84C3503A852
:10B82000CDE90413936891699847CEE7CDE9040008
:10B830008DF80C009368916903A89847B5E75862A2
:10B84000C3E7D3F83C25D3F84C3500BF703E002049
:10B85000914B1B6830B45D1C00F0F5808F4A126874
:10B86000062B00F0E5808E4B1B78062B00F0CF8076
:10B87000894B1B685C1C00F0C380884A1268062B49
:10B8800000F0B380864B1B78062B00F09B80824B28
:10B890001B68581C00F08F80804A1268062B7CD0F1
:10B8A0007F4B1B78062B5AD07B4B1B68591C1ED034
:10B8B0007A4A062B11680FD07A4AD2F8883043F4BE
:10B8C0007003C2F88830BFF34F8FBFF36F8F764B92
:10B8D000764A1A6030BC7047CA1E032A40F21281B1
:10B8E0000339032940F2B6806C4B1B68C2E06C49F7
:10B8F0006F4A097812680629C2F30312DCD1033AB1
:10B90000032A40F2FF80664A694B12781B68062AB8
:10B91000C3F30313D0D1033B032B40F29B80604A57
:10B92000634B12781B68062AC3F3031308BF4FF05A
:10B93000FF32C1D1033B032B40F2A280574B1B685F
:10B94000062AB9D1033B032BB6D85A4AD35C002B45
:10B95000B2D0594A136843F480631360ACE7544B88
:10B960001B68C3F30313033B032B9DD8534AD25CDC
:10B9700012B1534A03211160524AD35C002B93D079
:10B98000514A524C5249534B05201060012500206A
:10B990003F22256008601A6086E7033A032A3FF6D3
:10B9A0007FAF4FF080430022C3F80C21C3F8102171
:10B9B000C3F8382574E73E4A394B12681B78C2F346
:10B9C00003126BE73A4B1B68C3F30313033B032BD0
:10B9D0003FF65DAF404AD35C002B3FF458AF3F4A7F
:10B9E000D36823F08073D36051E7033A032A3FF60C
:10B9F00049AF3B4B3B4A1B68C3F34233136041E7FB
:10BA00002B4A274B12681B78C2F3031237E7284BE7
:10BA10001B68C3F30313033B032B3FF629AF324AE2
:10BA2000D35C002B3FF424AF304B314A1A601FE740
:10BA3000033A032A3FF617AF2E4B2F4A1B68C3F376
:10BA4000042313600FE71A4A154B12681B78C2F3E0
:10BA5000031205E7294B104A1B681268284903F0B6
:10BA60004F030B60531C3FF45AAF0C4B062A1B6864
:10BA70007FF422AF033B032B4FF006023FF65EAF8D
:10BA80004FF08041D1F8003413F0010F034B40F028
:10BA900093801B6854E700BF300100103401001090
:10BAA000E00F00F000ED00E0443600200090D003ED
:10BAB000E80F00F038F602003C1700403CF60200A8
:10BAC000A00500403CF60200105600408856004099
:10BAD00018560040145600403CF60200F0ED00E01D
