:020000022000DC
:10600000000001203599020075990200779902007D
:10601000799902007B9902007D990200000000003E
:1060200000000000000000000000000025980200B1
:106030008199020000000000459802008599020045
:10604000879902008799020045750200879902002E
:1060500087990200879902008799020087990200B8
:1060600087990200879902008799020087990200A8
:106070008799020087990200879902008799020098
:10608000879902007D950200879902008799020096
:106090008799020087990200879902008799020078
:1060A0008799020087990200879902008799020068
:1060B000879902008799020000000000000000009C
:1060C0008799020087990200879902008799020048
:1060D000879902008799020087990200000000005A
:1060E00000000000000000000000000000000000B0
:1060F00000000000000000000000000000000000A0
:10610000000000000000000000000000000000008F
:10611000000000000000000000000000000000007F
:10612000000000000000000000000000000000006F
:10613000000000000000000000000000000000005F
:10614000000000000000000000000000000000004F
:10615000000000000000000000000000000000003F
:10616000000000000000000000000000000000002F
:10617000000000000000000000000000000000001F
:10618000000000000000000000000000000000000F
:1061900000000000000000000000000000000000FF
:1061A00000000000000000000000000000000000EF
:1061B00000000000000000000000000000000000DF
:1061C00000000000000000000000000000000000CF
:1061D00000000000000000000000000000000000BF
:1061E00000000000000000000000000000000000AF
:1061F000000000000000000000000000000000009F
:10620000F1EE103A43F08073E1EE103A704700BFB0
:1062100010B5054C237833B9044B13B10448AFF3E0
:1062200000800123237010BDEC3700200000000027
:1062300028D5020008B5034B1BB103490348AFF34F
:10624000008008BD00000000F037002028D50200C3
:10625000154B002B08BF134B9D46A3F5803A002138
:106260008B460F461348144A121A04F04FFC0F4B8A
:10627000002B00D098470E4B002B00D098470020F1
:10628000002104000D000D48002802D00C48AFF397
:10629000008004F0D7FB2000290003F09FFB04F0EE
:1062A000BDFB00BF0000080000000120000000004E
:1062B00000000000EC370020CC430020000000006C
:1062C000000000002DE9F04F402289B082460E46C2
:1062D0004548002104F01AFC444B0FCB0DF1100986
:1062E00089E80F000AF1FF3708AB03EB8703C846C4
:1062F00053F810BC4D460024391B18BF012155F836
:10630000040B013403F0C2FE042CF5D1384D394F93
:106310000024304605F0A4F90346A3424FF00001E3
:10632000384640D9315D00F0C5FB0134402C05F8FA
:10633000010FEED109F1100958F8040B012103F007
:10634000A5FEC845F8D12C492C4800F055FC514613
:106350000A222A4800F0D0FD2949284800F04CFCC8
:10636000BBF1020F01AC26D0BBF1030F2DD0BBF166
:10637000040F34D0BBF1050F22D0BBF11C0F29D084
:10638000594620460A2201F043F921461B4800F0F5
:106390000FFC204601F0AEF91A49184800F0D0FC75
:1063A00009B0BDE8F08F00F085FB0134402C05F802
:1063B000010FAED1BEE71449204601F00FF9E4E722
:1063C0001249204601F00AF9DFE71149204601F0A1
:1063D00005F9DAE70F49204601F000F9D5E70E4943
:1063E000204601F0FBF8D0E73C38002024D1020021
:1063F0003B380020D438002058CF02000839002054
:1064000070CF020078CF020044CF020050CF0200CC
:1064100048CF020054CF02004CCF02000000000021
:106420002DE9F047764E441E2DED068B335D86B088
:1064300023B906B0BDEC068BBDE8F0877149DFF8E3
:1064400010A2714F0546FFF73DFF01F02FFA6F4B89
:106450006F4A53F8243042F82400C01A04F002F8BE
:1064600063A3D3E9002304F077F804F087FA5AF81D
:10647000249057F82430A9EB030207EE902A07EE88
:10648000109A08EE100AF8EEE77AB8EEC77AB9F17A
:10649000000FC7EE888A87EE08AA40F3A580184649
:1064A00003F0F0FF5B4B002204F056F8024648462A
:1064B0009046894603F0E6FF02460B4640464946B1
:1064C00004F074F904F05AFA03F0EEFF41EC190BF2
:1064D000514903A801F082F80A222946684601F0D2
:1064E00097F8694603A801F02FF94C4901F058F9D3
:1064F00001464B4800F0DEFB684601F0FBF803A8BC
:1065000001F0F8F84749464800F076FB5AF82410A5
:1065100043480A2200F0CAFC4349414800F06CFBA2
:1065200057F824305AF824103D48C91A0A2200F0BE
:10653000BDFC3E493A4800F05FFB1AEE100A03F03A
:10654000B3FF41EC100B0221354800F083FB3849C2
:10655000334800F0F5FB3749314800F04DFB18EEA9
:10656000900A03F0A1FF41EC100B02212C4800F02F
:1065700071FB2F492A4800F0E3FB2F49284800F01F
:106580003BFB18EE100A03F08FFF41EC100B0221C9
:10659000234800F05FFB2949214800F0D1FB28493E
:1065A0001F4800F029FB0A2257F824101C4800F06D
:1065B0007DFC24491A4800F01FFBB0EE490AF0EEBA
:1065C000690A0221164800F045FB1F49144800F0F3
:1065D000B7FB1E49124800F0B3FB0023335506B049
:1065E000BDEC068BBDE8F0879FED039B70E700BF15
:1065F000FCA9F1D24D62503F0000000000000000F5
:106600003838002094CF020028380020C4380020F9
:10661000083800200000594098CF0200A8CF02009F
:1066200008390020C4CF0200D4CF0200E8CF020016
:10663000F4CF0200F8CF020014D0020020D00200F4
:1066400024D0020030D0020044D0020048D0020022
:10665000B43800202DE9F043402289B007460021DC
:106660002D4804F053FA382200212C4804F04EFA49
:106670002B4B0FCB0DF1100989E80F00013FC846E5
:106680004D460024391B18BF012155F8040B013475
:1066900003F0FCFC042CF5D1224C234E04F1400500
:1066A0000021304600F006FA04F8010FAC42F7D1A1
:1066B00009F1100958F8040B012103F0E7FCC84563
:1066C000F8D1154D154E0FCD34460FC40FCD0FC464
:1066D0000FCD0FC495E8030096ED000A84E803008F
:1066E000022101A800F0C8FF104901A801F088F8B4
:1066F00028B10F4A52F82730013342F8273001A859
:1067000000F0F8FF0B4A52F82730013342F82730E7
:1067100009B0BDE8F08300BF3C3800207C38002081
:1067200024D102003B380020D438002084D002005D
:1067300028380020B438002010B51F4C4FF4E13148
:10674000204600F0F9FC94F8A33003B9FEE70121DC
:106750001C2003F003FC0121032003F0FFFB0121B7
:10676000042003F0FBFB0121052003F0F7FB0121CE
:106770001C2003F08BFC0121032003F087FC012186
:10678000042003F083FC0121052003F07FFC0B486B
:1067900000F0F8F80948082100F062F907480021E4
:1067A00000F052F90548012100F03EF92046044965
:1067B000BDE8104000F0C4BA08390020D4380020E9
:1067C0008CD0020030B5644885B000F03BFC08BBBB
:1067D000624C01F06BF82378054623B1604A1368D8
:1067E000C31A082B50D8637823B15D4A5368EB1A5B
:1067F000082B4ED8A37823B1594A9368EB1A082B7B
:106800004CD8E37823B1564AD368EB1A082B4AD800
:1068100005B030BD504901A80A2200F08FFB01A845
:1068200001F004F84F4901A800F0EAFFD8B94E4939
:1068300001A800F0E5FF00283BD0484C2378002B4E
:1068400079D16378002B40F08280A378002B7AD135
:10685000E378002B73D145493F4800F071FA01A855
:1068600000F048FFB5E73D4C2578002D54D0657801
:10687000002D42D0A578002D30D0E578FDB13C49FF
:10688000354800F05DFAEAE701201560FFF7E2FE07
:10689000A9E702205560FFF7DDFEABE70320956016
:1068A000FFF7D8FEADE70420D560FFF7D3FE05B0B3
:1068B00030BD30492848294C00F042FACFE7294939
:1068C0000420FFF7FFFC2C4B2C4ADD600123E37012
:1068D000D56000F0EBFF2A4BD860D0E721490320B8
:1068E000FFF7F0FC244B254A9D600123A3709560BF
:1068F00000F0DCFF224B9860BFE71A490220FFF747
:10690000E1FC1D4B1D4A5D6001236370556000F082
:10691000CDFF1B4B5860ADE712490120FFF7D2FCB9
:10692000154B164A1D6001232370156000F0BEFF51
:10693000134B18609BE70120FFF772FD81E70420ED
:10694000FFF76EFD87E70320FFF76AFD80E702206F
:10695000FFF766FD79E700BF0839002038380020CE
:10696000183800207CCF020094CF020070D00200C3
:1069700080CF0200DCD00200B4380020283800208C
:10698000C4380020417C01B170478368827B70B4B9
:1069900001254574224CC3F80825457BC3F80C55E6
:1069A00062792579067BC3F81065013A05F1FF3657
:1069B00018BF0122022EC3F80015027498BF42EAE4
:1069C00045022168C573C3F85425164AB2FBF1F29B
:1069D000B2F5007F0ED2FF2A15D87F2A16D83F2A9B
:1069E00017D81F2A18D80F2A8CBF4FF080414FF0BC
:1069F000004101E04FF000710122C3F8241570BC82
:106A0000C3F8002570474FF08061F5E74FF0006153
:106A1000F2E74FF08051EFE74FF00051ECE700BF95
:106A2000E83800200090D003C37B013903F1FF3226
:106A300018BF0121022A017498BF41EA430183680B
:106A4000C3F85415704700BF037CC1734A1E022A65
:106A5000826898BF43EA4103C2F85435704700BFCB
:106A6000B1F5007F07D2FF290BD983684FF0806210
:106A7000C3F8242570474FF000728368C3F82425BB
:106A800070477F2906D83F290AD81F290BD94FF014
:106A90000052F2E783684FF00062C3F82425704784
:106AA0004FF08052E9E70F298CBF4FF080424FF042
:106AB0000042E2E78268C2F81C15D2F80831002BC8
:106AC000FBD0D2F818050023C0B2C2F808317047D5
:106AD0000A4A0B4B0B4970B4D2E90C05966B0A4C71
:106AE000987300224FF480701E739C605D73074C96
:106AF000DA731A8288800C6070BC704768D102001B
:106B0000D4380020E83800200030024000093D0061
:106B100000207047704700BF002070474FF0FF30E3
:106B2000704700BF002070474FF0FF30704700BF34
:106B30000020704730B4084B084A4FF47F4102F1FF
:106B40000805002430324FF47A709982C3E901407D
:106B50001D601A6130BC7047F038002034D102004B
:106B600008B50121112003F0F9F9112003F0A4FA6E
:106B70001320012103F0F2F9BDE80840132003F0CF
:106B80009BBA00BFF8B5174682B105460E460024F1
:106B900002E00134A74207D02B6816F8011B1B68DE
:106BA000284698470028F4D12046F8BD1446FBE754
:106BB0000368104A2DE9F0415E680F688D689642BF
:106BC00012D175B10446002603E00136B54208D063
:106BD00023681B6817F8011B204698470028F4D14A
:106BE00035462846BDE8F0812A4639463346BDE899
:106BF000F0411847856B02002DE9F0410C46D9B1F0
:106C000007688046084604F02BFD7B68104A9342D3
:106C1000064615D1D0B1002504E00135AE4208D0BA
:106C2000D8F800703B6814F8011B404698470028CC
:106C3000F3D12846BDE8F0810D462846BDE8F08135
:106C4000024621464046BDE8F04118470546F0E7B8
:106C5000856B0200F0B50446C3B0CBB2134A8DED8C
:106C6000000B02A84FF4807104F094FC2368104AD2
:106C70005D689542064610D102AF002503E001355C
:106C8000AE4207D023681B6817F8011B20469847BF
:106C90000028F4D1284643B0F0BD024602A92046A0
:106CA000A8470546284643B0F0BD00BFE8D1020022
:106CB000856B020003682DE9F041DFF880805E6893
:106CC0000F688D68464504462CD17DB1002603E04F
:106CD0000136B54223681AD01B6817F8011B2046FD
:106CE00098470028F4D1236835465E68464511D19F
:106CF0001B680D212046984730B1236820461B6849
:106D00000A219847A8B102352846BDE8F0815E689F
:106D10004645EDD0084920460222B04705442846A2
:106D2000BDE8F0812A463946B047236805465E68CB
:106D3000DCE70135E8E700BFF0D10200856B020017
:106D40002DE9F0470768DFF894A0D7F804900446CF
:106D50000E4600293AD0084604F082FCD145804610
:106D600022D1002836D0002503E00135A845276848
:106D700020D03B6816F8011B204698470028F4D124
:106D80002768D7F80490D14518D13B680D212046DB
:106D9000984730B1236820461B680A219847B8B14C
:106DA00002352846BDE8F087024631462046C847EE
:106DB00027680546D7F80490D145E6D00649204615
:106DC0000222C84705442846BDE8F0870D46DAE7A9
:106DD0000135E6E70546D6E7F0D10200856B0200F3
:106DE0002DE9F0418AB000230546012A98BF0A2206
:106DF0008DF8243009ACB1FBF2F602FB1610C3B2D9
:106E000009280F4603F130008ABF3733C3B2DBB223
:106E1000BA4204F8013D3146EDD92F68204604F00E
:106E20001FFC7B680F4A9342804612D168B100264E
:106E300003E00136B04508D02F683B6814F8011B09
:106E4000284698470028F4D1B04640460AB0BDE82D
:106E5000F0810246214628469847804640460AB0BF
:106E6000BDE8F081856B020070B506460D462AB973
:106E70000368BDE870401B68C9B218470A2A144667
:106E80000ED100290DDA03682D211B689847224690
:106E90000346694230461C46FFF7A2FF204470BDFE
:106EA000D2B2BDE87040FFF79BBF00BF70B504468B
:106EB000FFF7DAFF23680E4A5E68964205460DD159
:106EC0001B680D212046984730B1236820461B6877
:106ED0000A21984748B10235284670BD0549204629
:106EE0000222B0470544284670BD0135F4E700BFD3
:106EF000856B0200F0D1020070B506460D462AB936
:106F00000368BDE870401B68C9B218470A2A1446D6
:106F10000ED100290DDA03682D211B6898472246FF
:106F20000346694230461C46FFF75AFF204470BDB5
:106F3000D2B2BDE87040FFF753BF00BF70B50C463A
:106F400018491646054600F049FB00F0AFFCE0602A
:106F500008E002F035FF00F0A9FCD4E90232801A03
:106F600098421DD2236820461B6998470028F0DB11
:106F7000864215D0C1B2284600F0C4FB00F096FC52
:106F8000E060236820461B6998470028F0DA02F089
:106F900017FF00F08BFCD4E90232801A9842F0D33C
:106FA000284670BD40D0020090F8A300704700BF93
:106FB00038B590F99D30002B04460DDB5A09204866
:106FC0002032012103F01F0301FA03F340F82230BD
:106FD000BFF34F8FBFF36F8F2369002101224FF45E
:106FE0008870C3F80803C3F84411C3F858115A60F5
:106FF000DA6002E002F0E4FE2369D3F85821002AA7
:10700000F8D0D3F84421002AF4D04FF0FF32002505
:10701000C3F8005504F11400C3F80C25C3F8142577
:10702000C3F80825C3F8102503F06EF8D4F8A400BF
:1070300001F0F0F9C4F8A45084F8A35038BD00BFA3
:1070400000E100E0143003F071B800BF143003F029
:1070500073B800BF143003F05BB800BF08B5D0F8B8
:10706000A40001F0CBF9002814BF4020002008BD87
:1070700090F8A33003B9704710B54FF0FF310446C4
:10708000D0F8A40001F03EF80023D4F8A4001A467A
:10709000BDE81040194600F0F9BC00BF10B5036808
:1070A0000F4A5B6882B093428DF8071012D10446F4
:1070B0004FF0FF31D0F8A40001F024F89DF807301C
:1070C00084F85D30226901231846C2F84835936080
:1070D00002B010BD01220DF10701984702B010BDAA
:1070E000E57002002DE9F04716460AB307468846C8
:1070F00000F15D0A00254FF00109741B402C28BFE8
:1071000040244FF0FF31D7F8A40000F0FBFF08EB5C
:1071100005012246504603F0D1FC25443B69AE42AE
:10712000C3F84845C3F80890E7D82846BDE8F0877B
:1071300015462846BDE8F087036870B51B6A744D94
:10714000AB4240F0AE800A4690F8A31004460029F6
:1071500040F09F80036990F89F00C3F80C0594F8F5
:107160009E00C3F8140594F8A200012800F09D8049
:10717000C3F86C15B2F5966F45D9B2F5166F40F2AB
:107180009F80B2F5965F40F29E80B2F5165F40F2A6
:107190009C80B2F5615F40F29A80B2F5964F40F262
:1071A0009880B2F5E14F40F2968047F612218A426C
:1071B00040F29380B2F5164F40F292804DF6C02116
:1071C0008A4240F29080B2F5614F40F28F80B2F572
:1071D000963F40F28E80B2F5E13F40F28C80B2F5EE
:1071E000613F40F28B804B498A4240F28D80B2F57C
:1071F000E12F40F28680B2F5612F94BF4FF07062AC
:107200004FF0805201E04FF49E2294F99D00C3F8A4
:107210002425082104F15D020025C3F8001500288B
:10722000C3F8442504F15C01C3F820514FF001027A
:107230004FF48875C3F83415C3F838251A60C3F8BD
:10724000045327DB344D410900F01F062B18603131
:10725000B240602045F8212083F8000394F99D3066
:10726000002B07DB2C4903F01F0001225B09824041
:1072700041F8232003220021012000F0C5FB002358
:107280001A461946C4F8A40000F000FC012384F853
:10729000A33070BD214A00F00F031A446023137617
:1072A000DCE7BDE870400022184794F8A010C3F84E
:1072B000101594F8A110C3F80815C3F86C0559E728
:1072C0004FF41D22A1E7164A9FE7164A9DE7164A8A
:1072D0009BE7164A99E7164A97E74FF4000294E7AE
:1072E0004FF41D0291E74FF465028EE74FF46B02F5
:1072F0008BE7104A89E74FF0EB7286E74FF06C722C
:1073000083E74FF0E86280E74FF080627DE700BFDF
:107310003973020090D0030000E100E0FCEC00E0D3
:1073200000B013000050270000F03A0000A04E000B
:1073300000C0750000903A0190F8A330002B40F097
:10734000B08070B50369044690F89F00C3F80C053F
:1073500094F89E00C3F8140594F8A20001284AD0BE
:10736000B1F5966FC3F86C2554D9B1F5166F40F29C
:10737000A080B1F5965F40F29F80B1F5165F40F2B4
:107380009D80B1F5615F40F29B80B1F5964F40F270
:107390009980B1F5E14F40F2978047F61222914271
:1073A00040F29480B1F5164F40F293804DF6C02222
:1073B000914240F29180B1F5614F40F29080B1F579
:1073C000963F40F28F80B1F5E13F40F28D80B1F5FC
:1073D000613F40F28C804A4A914240F28E80B1F582
:1073E000E12F40F28780B1F5612F94BF4FF07062BA
:1073F0004FF0805210E094F8A000C3F8100594F804
:10740000A100C3F8080542F00102B1F5966FC3F878
:107410006C25AAD84FF49E2294F99D00C3F8242528
:10742000082104F15D020025C3F800150028C3F807
:10743000442504F15C01C3F820514FF001024FF4E0
:107440008875C3F83415C3F838251A60C3F8045397
:1074500028DB2C4D410900F01F062B186031B2408B
:10746000602045F8212083F8000394F99D30002B1B
:1074700007DB244903F01F0001225B09824041F829
:10748000232003220021012000F0BEFA00231A4627
:107490001946C4F8A40000F0F9FA012384F8A330D7
:1074A00070BD7047184A00F00F031A44602313762A
:1074B000DBE74FF41D22AFE7144AADE7144AABE710
:1074C000144AA9E7144AA7E7144AA5E74FF40002B3
:1074D000A2E74FF41D029FE74FF465029CE74FF4CB
:1074E0006B0299E70E4A97E74FF0EB7294E74FF083
:1074F0006C7291E74FF0E8628EE74FF080628BE7A5
:1075000090D0030000E100E0FCEC00E000B01300CC
:107510000050270000F03A0000A04E0000C07500A7
:1075200000903A0108B5054B1BB1054802F0FEFD7D
:1075300000B908BDAFF3008008BD00BF0000000027
:107540001C39002010B5114C2369D3F810213AB131
:107550000022C3F81021D3F83C2572B901221A6029
:10756000D3F8202102B910BD0021D4F8A400C3F83B
:107570002011BDE8104000F039BC94F85C1004F113
:10758000140002F0B3FD2369E8E700BF08390020CA
:1075900038B50E4C0E4A20464FF47A73002540F859
:1075A000142BC4E9015302F095FD0A4B0A481A6AEC
:1075B0009B6984F89F300221A4F8A250C4F8A4501B
:1075C000206184F89D1084F89E2038BD0839002081
:1075D000FCD1020068D1020000200040F8B500266E
:1075E000C0E900660446866079B108460D4604F09D
:1075F00037F80746013000F065F930B1C4E90007FB
:107600000670A760294604F023F82046F8BD00BFA5
:1076100030B5044600238BB0C4E90033A3600846AC
:1076200001A902F085F901A804F01AF823680546BB
:1076300013B1626890420BD91846691C00F072F9C8
:10764000034668B1A268C4E900050AB9027023685C
:10765000A56001A9184603F0FBFF20460BB030BD22
:10766000206808B100F048F900232046C4E901333E
:1076700023600BB030BD00BF70B5044600238AB054
:1076800010EE100AC4E90033A3600D468E1C02F010
:107690000BFF76B241EC100B01AA2946304600F0F0
:1076A000EFF8E0B1054603F0DBFF2368064613B1AF
:1076B000626890420BD91846711C00F033F90346FA
:1076C00068B1A268C4E900060AB902702368A6601E
:1076D0002946184603F0BCFF20460AB070BD20685A
:1076E00008B100F009F900232046C4E90133236002
:1076F0000AB070BD10B50446006800F0FDF82046E1
:1077000010BD00BF30B5836883B0044600688DF8B3
:10771000041000225D1C8DF8052010B162689542AE
:107720000AD9991C00F0FEF860B1A368C4E900050D
:1077300013B903702068A368184401A903F088FFF7
:10774000A560012003B030BD70B50E6804461EB1BF
:107750008D685DB9204670BD206808B100F0CCF896
:107760000023C4E901332360204670BD82680068AD
:10777000154410B163689D420BD9691C00F0D2F822
:107780000028E9D0A268C4E9000512B90270206897
:10779000A2683146104403F05BFFA560204670BD2F
:1077A00070B5044631B108460D4603F059FF58B98B
:1077B000204670BD206808B100F09EF80023C4E99F
:1077C00001332360204670BDA2682368861813B178
:1077D00061688E420DD91846711C00F0A3F803466B
:1077E0000028E7D0A268C4E9000612B90270236835
:1077F000A2682946981803F02BFFA660204670BDAA
:10780000826808B50B463AB161B1006803F016FF13
:10781000B0FA80F0400908BD31B11878B0FA80F0B4
:10782000400908BD0368F8E7012008BD2DE9F041D3
:107830000768E7B184680646CCB1B846454618F8F3
:10784000010B03F023F90028F8D1013C3C4402E08D
:10785000A54205D8013C207803F018F90028F7D19B
:10786000621C521BAF42B26003D30023BB54BDE87D
:10787000F0813846294603F021F93768B268F4E709
:10788000D0B50B4686B0144657EC106B024606493D
:1078900001A803F0B3FE32463B4601A9204603F09F
:1078A000ADFE204606B0D0BD28D2020008B501F0DA
:1078B00035F84FF47A73A0FB0323900A40EA835013
:1078C00008BD00BF10B5044601F07AFB022804D0C1
:1078D0002046BDE8104003F0E1B801F017F820465B
:1078E00003F0DCF8044601F0C1F80CB1204610BDED
:1078F00002F074FAFAE700BF10B5044601F060FB2D
:1079000002280AD144B101F001F8204603F0CEF874
:10791000BDE8104001F0AAB810BD2046BDE81040F7
:1079200003F0C4B810B582B00446019101F048FBE1
:107930000228019905D0204602B0BDE8104003F0AE
:1079400011BE00F0E3FF2046019903F00BFE044650
:1079500001F08CF814B1204602B010BD02F03EFADE
:10796000F9E700BF10B582B0019000F0CFFF019899
:1079700003F094F8044601F079F814B1204602B0FF
:1079800010BD02F02BFA204602B010BD50B110B568
:10799000044600F0BBFF204603F088F8BDE8104025
:1079A00001F064B8704700BF38B51C469DF8105010
:1079B00043B3002908BF1A460123C4E90F0122601E
:1079C00084F8463001F0C2FDD4E90F132268A260AA
:1079D00001FB03F1CB1A134400200A44FF21A063EA
:1079E000E36084F84410626084F8451004F11000EC
:1079F00002F0AAFB04F1240002F0A6FB01F0B0FDA6
:107A000084F84C50204638BDF8B5064617460D465A
:107A100069B100FB01F05030FFF7A4FF044690B3BA
:107A2000002200F1500380F84620036007E0502058
:107A3000FFF798FF044630B384F846502460C4E949
:107A40000F6501F083FDD4E90F132268A26001FBEA
:107A500003F1CB1A134400200A44FF21A063E36022
:107A600084F84410626084F8451004F1100002F0BC
:107A70006BFB04F1240002F067FB01F071FD84F858
:107A80004C702046F8BD00242046F8BD2DE9F04793
:107A9000044684B01F460192884600F1240601F096
:107AA00055FDA26BE36BDFF840939A424FF0000A5A
:107AB0007CD3022F00F0E880019D002D00F01281A0
:107AC00002ADBAF1000F00F0DB8001F049FD00F0DB
:107AD0001DFF01F03BFD94F84430FF2B04BF002351
:107AE00084F8443094F84530FF2B04BF002384F819
:107AF000453001F035FD284601A901F00BFA0028B8
:107B000040F0F68001F022FDA26BE36B9A4261D057
:107B100001F026FD01F01AFD94F845506DB2002DDC
:107B200005DC12E06B1E13F0FF0F5DB20DD0636A2F
:107B3000304653B101F090F90028F3D001F01EFA5D
:107B40006B1E13F0FF0F5DB2F1D1FF2384F84530B7
:107B500001F006FD01F0FAFC94F844506DB2002DDE
:107B600015DD04F1100A04E06B1E13F0FF0F5DB287
:107B70000DD02369504653B101F06EF90028F3D0BF
:107B800001F0FCF96B1E13F0FF0F5DB2F1D1FF2382
:107B900084F8443001F0E4FC00F068FF01F0D6FC0A
:107BA000A26BE36B9A424FF0010A82D2226CA56B62
:107BB000002A40F0E7802668002E00F0F9800135A9
:107BC000A563636A002B7CD101F0CAFC012004B0DC
:107BD000BDE8F08704F1100A01F0C2FC019950469B
:107BE00001F0BEF801F0B2FC94F845506DB2002DE2
:107BF00005DC12E06B1E13F0FF0F5DB20DD0636A5F
:107C0000304653B101F028F90028F3D001F0B6F95D
:107C10006B1E13F0FF0F5DB2F1D1FF2384F84530E6
:107C200001F09EFC01F092FC94F844506DB2002DDE
:107C300005DC12E06B1E13F0FF0F5DB20DD023695F
:107C4000504653B101F008F90028F3D001F096F93D
:107C50006B1E13F0FF0F5DB2F1D1FF2384F84430A7
:107C600001F07EFC00F002FF002897D14FF0805316
:107C7000C9F8043040BFBFF34F8FBFF36F8F8DE75C
:107C8000284601F03BF920E7226CA56B002A92D030
:107C90004146E06802F012FF226CE36821689B1AFB
:107CA0008B42E360C2F1000204D263681A44E260CE
:107CB000022F84D1002D83D10123A363636A002B9B
:107CC00082D004F1240001F0C7F800283FF47CAF13
:107CD000454B4FF080525A6040BFBFF34F8FBFF308
:107CE0006F8F71E701F03CFC284604B0BDE8F087D7
:107CF00001F02CFC94F845506DB2002D15DD04F117
:107D0000240604E06B1E13F0FF0F5DB20DD0636A12
:107D1000304653B101F0A0F80028F3D001F02EF95D
:107D20006B1E13F0FF0F5DB2F1D1FF2384F84530D5
:107D300001F016FC01F00AFC94F844506DB2002DDD
:107D400015DD04F1100604E06B1E13F0FF0F5DB2A9
:107D50000DD02369304653B101F07EF80028F3D0EE
:107D600001F00CF96B1E13F0FF0F5DB2F1D1FF2390
:107D700084F8443001F0F4FB00F078FE002004B0F9
:107D8000BDE8F087414607BBA06802F097FEA368F4
:107D9000216C62680B449342A360FFF410AF01357D
:107DA000A563636A2268A260002B3FF40DAF88E7E9
:107DB0006068013501F05AF9A563636A6660002BBB
:107DC0007FF47FAF002883D1FEE6E06802F076FE04
:107DD000226CE36821689B1A8B42E360C2F10002C7
:107DE000BFF466AF61E700BF00ED00E010B582B000
:107DF000EFF31184402383F31188836BC26B9A42A3
:107E00000FD990F845200133FF2A836353B20DD078
:107E100001335BB280F84530012084F3118802B051
:107E200010BD002084F3118802B010BD436A002BFE
:107E3000F2D02430019101F00FF80028ECD0019924
:107E40000029E9D001200860ECE700BF2DE9F043EC
:107E5000044685B00F46019201F078FBA56B002D1A
:107E600040F02781019B002B00F0D28002A801F096
:107E700045F8DFF88C8204F1240601F071FB00F074
:107E800045FD01F063FB94F84430FF2B04BF002351
:107E900084F8443094F84530FF2B04BF002384F865
:107EA000453001F05DFB01A902A801F033F800287C
:107EB0005BD101F04BFBA36B002B40F0AF8001F0D6
:107EC0004FFB0199304600F04BFF01F03FFB94F867
:107ED00045506DB2002D05DC12E06B1E13F0FF0F54
:107EE0005DB20DD0636A304653B100F0B5FF002893
:107EF000F3D001F043F86B1E13F0FF0F5DB2F1D128
:107F0000FF2384F8453001F02BFB01F01FFB94F8B0
:107F100044506DB2002D15DD04F1100904E06B1E14
:107F200013F0FF0F5DB20DD02369484653B100F046
:107F300093FF0028F3D001F021F86B1E13F0FF0F20
:107F40005DB2F1D1FF2384F8443001F009FB00F069
:107F50008DFD002853D14FF08053C8F8043040BF46
:107F6000BFF34F8FBFF36F8F49E001F0EFFA94F842
:107F700045506DB2002D05DC12E06B1E13F0FF0FB3
:107F80005DB20DD0636A304653B100F065FF002842
:107F9000F3D000F0F3FF6B1E13F0FF0F5DB2F1D1D1
:107FA000FF2384F8453001F0DBFA01F0CFFA94F8B2
:107FB00044506DB2002D15DD04F1100904E06B1E74
:107FC00013F0FF0F5DB20DD02369484653B100F0A6
:107FD00043FF0028F3D000F0D1FF6B1E13F0FF0F1A
:107FE0005DB2F1D1FF2384F8443001F0B9FA00F01A
:107FF0003DFD01F0ABFAA36B53B101F0B1FA01F012
:10800000A5FAA56B002D54D1019B002B7FF435AF51
:1080100001F0A6FA002005B0BDE8F08301F0A0FA57
:1080200001F094FA94F845506DB2002D05DC12E091
:108030006B1E13F0FF0F5DB20DD0636A304653B173
:1080400000F00AFF0028F3D000F098FF6B1E13F039
:10805000FF0F5DB2F1D1FF2384F8453001F080FAC3
:1080600001F074FA94F844506DB2002D15DD04F15E
:10807000100904E06B1E13F0FF0F5DB20DD02369F1
:10808000484653B100F0E8FE0028F3D000F076FF38
:108090006B1E13F0FF0F5DB2F1D1FF2384F8443063
:1080A00001F05EFA00F0E2FC01F050FAA56B002D41
:1080B000AAD0226C52B1E168636811449942E16030
:1080C00024BF2168E160384602F0F8FC013DA56359
:1080D00023692BB901F044FA012005B0BDE8F08313
:1080E00004F1100000F0B8FE0028F3D0044B4FF06C
:1080F00080525A6040BFBFF34F8FBFF36F8FE9E7E5
:1081000000ED00E02DE9F043044685B000F12406BF
:10811000019101F01BFAA36BDFF8DC820027B9465E
:10812000002B40F0D780019D002D00F0418102AD71
:10813000B9F1000F00F0DE8001F012FA00F0E6FB6A
:1081400001F004FA94F84430FF2B04BF002384F8B4
:10815000443094F84530FF2B04BF002384F84530A9
:1081600001F0FEF9284601A900F0D4FE00285FD1F5
:1081700001F0ECF9A36B002B40F0C88001F0F0F99E
:108180002368002B00F01B810199304600F0E8FDC8
:1081900001F0DCF994F845506DB2002D05DC12E0D9
:1081A0006B1E13F0FF0F5DB20DD0636A304653B102
:1081B00000F052FE0028F3D000F0E0FE6B1E13F03A
:1081C000FF0F5DB2F1D1FF2384F8453001F0C8F90B
:1081D00001F0BCF994F844506DB2002D15DD04F1A6
:1081E000100904E06B1E13F0FF0F5DB20DD0236980
:1081F000484653B100F030FE0028F3D000F0BEFE38
:108200006B1E13F0FF0F5DB2F1D1FF2384F84430F1
:1082100001F0A6F900F02AFC002853D14FF080535A
:10822000C8F8043040BFBFF34F8FBFF36F8F49E0F2
:1082300001F08CF994F845506DB2002D05DC12E088
:108240006B1E13F0FF0F5DB20DD0636A304653B161
:1082500000F002FE0028F3D000F090FE6B1E13F039
:10826000FF0F5DB2F1D1FF2384F8453001F078F9BA
:1082700001F06CF994F844506DB2002D15DD04F155
:10828000100904E06B1E13F0FF0F5DB20DD02369DF
:10829000484653B100F0E0FD0028F3D000F06EFE38
:1082A0006B1E13F0FF0F5DB2F1D1FF2384F8443051
:1082B00001F056F900F0DAFB01F048F9A36BEBB1DD
:1082C00001F04EF901F042F9A36B4FF00109002BC8
:1082D0003FF429AF2268013BA363002A00F08880A5
:1082E0002369002B74D101F03BF90127384605B012
:1082F000BDE8F083284600F001FE1DE701F030F9EB
:10830000002F4AD1384605B0BDE8F08301F028F9C6
:1083100001F01CF994F845506DB2002D05DC12E017
:108320006B1E13F0FF0F5DB20DD0636A304653B180
:1083300000F092FD0028F3D000F020FE6B1E13F039
:10834000FF0F5DB2F1D1FF2384F8453001F008F949
:1083500001F0FCF894F844506DB2002D15DD04F1E5
:10836000100904E06B1E13F0FF0F5DB20DD02369FE
:10837000484653B100F070FD0028F3D000F0FEFD38
:108380006B1E13F0FF0F5DB2F1D1FF2384F8443070
:1083900001F0E6F800F06AFB94E701F0D7F8616AB3
:1083A00019B1236B1968C1F10501606800F08EFEF8
:1083B00001F0D6F80027384605B0BDE8F08301F09B
:1083C000C5F8606800F00CFE074601F0C9F8DBE66E
:1083D00004F1100000F040FD002884D0064B4FF05F
:1083E00080525A6040BFBFF34F8FBFF36F8F7AE761
:1083F00000F0A6FE606073E700ED00E010B50446F3
:1084000082B001F0A3F8A06B019001F0A9F80198E7
:1084100002B010BD104B5A68904208D0DA68904202
:1084200008BF012204D090F8463093B17047002273
:10843000002110B403EBC20443F8321090F8463028
:10844000616013B15DF8044B70475DF8044BFFF7B2
:108450009DBAFFF79BBA00BFA0430020074B1A68E4
:108460001AB19A6802B17047012210B403EBC2043A
:1084700043F8321060605DF8044B7047A043002061
:1084800070B504460E46154601F060F894F8443085
:10849000FF2B04BF002384F8443094F84530FF2BB1
:1084A00004BF002384F8453001F05AF8A36B002B79
:1084B00045D001F04BF894F845506DB2002D15DD14
:1084C00004F1240604E06B1E13F0FF0F5DB20DD023
:1084D000636A304653B100F0BFFC0028F3D000F0CF
:1084E0004DFD6B1E13F0FF0F5DB2F1D1FF2384F839
:1084F000453001F035F801F029F894F844506DB298
:10850000002D15DD04F1100604E06B1E13F0FF0FC3
:108510005DB20DD02369304653B100F09DFC0028B8
:10852000F3D000F02BFD6B1E13F0FF0F5DB2F1D105
:10853000FF2384F84430BDE8704001F011B82A46AA
:10854000314604F1240000F047FCB2E72DE9F04188
:10855000044600F0FBFF344A344D136801331360C6
:108560002B68002B30D0324E336833B3E36A314886
:10857000314907680A689F4238BF03602F480132BB
:1085800003EB83030A6000EB8300E263211D01F02B
:10859000EBFD00F0E5FF33686BB12A68E36AD26A4D
:1085A0009A4208D2264B4FF080525A6040BFBFF328
:1085B0004F8FBFF36F8FBDE8F0812A68E36AD26AFC
:1085C0009A4298BF2C60D2E72C601368012B02D02E
:1085D000E36A174ECBE71948DFF89080194F144E25
:1085E00001F0B2FD184801F0AFFD184801F0ACFDF4
:1085F000174801F0A9FD174801F0A6FD404601F01B
:10860000A3FD384601F0A0FD134801F09DFD13487D
:1086100001F09AFD124801F097FD124B124AC2F880
:1086200000801F60E36AA2E7203A0020B0390020F2
:10863000803A0020343A0020303A0020BC39002033
:1086400000ED00E04C3A0020D0390020E439002051
:10865000F83900200C3A00206C3A0020983A0020AB
:10866000843A0020B8390020B4390020383A00207C
:108670002DE9F843DDE909C4002C66D0BCF1000FF8
:1086800060D00D46960098460223324684F8513059
:10869000A5210746C4F830C0604602F037FA2A78B0
:1086A00084F83420236B2978321F1A4422F00706FD
:1086B00001B36B7884F835306B78DBB1AB7884F834
:1086C0003630AB78B3B1EB7884F83730EB788BB1D8
:1086D0002B7984F838302B7963B16B7984F8393091
:1086E0006B793BB1AB7984F83A30AB7913B1EB7964
:1086F00084F83B30089D042D28BF04254FF0000965
:10870000E5626564201D84F83B90C4F8489001F050
:1087100027FDC5F1050504F1180001F021FDC4F89D
:108720004C9042463946A561246184F850906462B9
:10873000304600F0CFFE20602046FFF707FF2046BE
:10874000BDE8F8836046BDE8F8832046BDE8F883BD
:108750002DE9F0479600804630460D469946FFF7D2
:1087600001F9002862D007465420FFF7FBF80446C1
:1087700000285FD000230763324684F85130384622
:10878000A52102F0C3F92B7884F834302B78D4F883
:1087900030A003B36B7884F835306B78DBB1AB78FD
:1087A00084F83630AB78B3B1EB7884F83730EB78B7
:1087B0008BB12B7984F838302B7963B16B7984F8DD
:1087C00039306B793BB1AB7984F83A30AB7913B17E
:1087D000EB7984F83B30089D042D28BF0425002741
:1087E000E5626564201D84F83B70A764043E01F0D7
:1087F000B7FCC5F1050504F11800564401F0B0FCC2
:10880000E764A56126F0070084F850702461646273
:108810004A46414600F05EFE099B206003B11C60A1
:108820002046FFF793FE0120BDE8F0874FF0FF30B0
:10883000BDE8F0873846FFF7A9F84FF0FF30F3E7BF
:1088400070B584B0002503AA02A901A8CDE901559D
:1088500001F0C6FA019C002C46D00298002843D0B3
:10886000039E20630223B6003246A52184F85130CE
:1088700002F04CF9206B1F4B6363043E0644C4E9CD
:108880001155201D84F8385084F83B50E56201F002
:1088900067FC04F1180001F063FC26F007060523CD
:1088A0001549A3612A46E56430462461646284F870
:1088B000505000F00FFE20602046FFF747FE0F4BA0
:1088C0001C6000F0ADFD012811D1402383F3118815
:1088D0000B490C4A0C4B4FF0FF340C6010601D60CC
:1088E00000F00EFE04B070BD044B00221A6004B00C
:1088F00070BD00BF49444C458D8B0200603A00209A
:10890000643A0020803A0020AC3A0020024A136802
:1089100001331360704700BF2C3A0020014B1868E8
:10892000704700BFAC3A0020024A13681844106038
:10893000704700BFAC3A00202DE9F04F404B1B6858
:1089400083B0002B46D13F4B1E6801361E60002EBF
:108950004ED0DFF808B1DBF80030B3425FD83A4FB1
:108960003B681D68002D65D0DFF8F480DFF8F4A0C7
:10897000DFF8F490002522E0019101F01DFCA36ACC
:10898000019904F1180013B101F016FC0199E36A92
:10899000D8F8002003EB830093420AEB800088BFE5
:1089A000C8F8003001F0E0FBD9F800203B68E16A2C
:1089B000D26A1B68914228BF0125002B3AD03B6840
:1089C000DB68DC686368211D9E420846D4D2CBF880
:1089D000003004E01D4A13680133136000251C4B6E
:1089E0001B68002B0CBF2846012003B0BDE8F08FA8
:1089F000154B184A1868184914681C6010600A68FA
:108A000001320A601A6812685AB9DFF850B04FF0A4
:108A1000FF33CBF80030DBF80030B3429FD900259C
:108A2000DDE71B68DFF834B0DB68DB685B68CBF838
:108A3000003090E74FF0FF33CBF80030CFE700BFB6
:108A40002C3A0020AC3A0020B4390020283A00200B
:108A5000B03A0020B8390020683A0020643A00207B
:108A6000343A0020BC390020B03900202DE9F04F05
:108A700083B000F06BFD3A4B1A68013A1A601B682C
:108A8000002B55D1374B1B68002B51D0364D2B682E
:108A9000002B62D0354EDFF8EC80354FDFF8E890E0
:108AA0004FF0010AEB68DC6804F1040B04F11800D4
:108AB00001F082FB584601F07FFBE36A326803EB6A
:108AC00083009342594608EB800088BF336001F071
:108AD0004BFB3B68E26ADB6A9A4231D3C9F800A0DB
:108AE0002B68002BDED1234B1A681268002A2FD086
:108AF0001A68214BD268D26852681A601F4E3468D7
:108B000044B10125FFF718FF08B1C9F80050013C36
:108B1000F8D13460D9F8003053B1194B4FF080527E
:108B20005A6040BFBFF34F8FBFF36F8F012000E04B
:108B30000020019000F014FD019803B0BDE8F08F13
:108B40002B68002BAED10B4B1A681268002ACFD1CC
:108B5000094B4FF0FF321A60D0E7DFF82C90CDE7D9
:108B60002C3A0020203A00206C3A0020343A0020B1
:108B7000B0390020B4390020643A0020283A00209F
:108B800000ED00E0BC390020B03A00202DE9F84F9C
:108B90003A4CDFF804913A4D3A4EDFF800813A4FF3
:108BA000DFF8FCB02368EBB100F0D0FCD9F80C3052
:108BB000D3F80CA00AF1040001F0FEFA2B68013B87
:108BC0002B602368013B236000F0CAFC9AF8513007
:108BD000002B34D0012BE5D15046FEF7D7FE236899
:108BE000002BE1D13368012B08D94FF08053CBF82B
:108BF000043040BFBFF34F8FBFF36F8F00F052FEC2
:108C0000D8F800301BBB3B68DB6A002BCAD1336845
:108C1000012BC7D81D4B1E4A1B6812689B1A012BDB
:108C2000C0D91C4A136801331360D8F80030A3B1CF
:108C30003B68DB6A03B93368FFF718FFB2E7DAF87D
:108C40003000FEF7A3FE5046FEF7A0FEAAE73B6801
:108C5000DB6A002BA6D13368A4E73B68DB6A002BF4
:108C6000EAD13368012BE7D8084B1868084B1B681A
:108C7000C01A0128E0D900F0E3FCDDE7243A002027
:108C8000203A0020BC390020B0390020643A00208E
:108C9000AC3A00202C3A0020983A0020343A0020C8
:108CA00000ED00E0294B1B681BB1294B01221A6023
:108CB0007047274A70B5274C1360226823681268F2
:108CC0001B6B9A423CD9244D244B2A6802EB82004C
:108CD00080009100185808BB501E00EB8006B600BB
:108CE00081009E5956BB901E00EB8006B6008100A5
:108CF0009E591EBBD01E00EB8006B60081009E5917
:108D0000E6B9101F00EB8006B60081009E59AEB98F
:108D1000053A02EB8200800091001858114403EBE1
:108D2000810003464168496841600833994204BFA5
:108D300049684160CB6823602A6070BD0246EDE758
:108D400020682168343101F047F8BCE72C3A002054
:108D5000B03A0020B0390020343A0020BC3900205D
:108D600070B5174D2B680C4603F1180101F00CFA91
:108D7000144B1E682868043001F01EFA631C17D0DB
:108D80002B68A4195C6007D30F4B18682968BDE8ED
:108D90007040043101F0F8B90C4B186829680431AF
:108DA00001F0F2F90A4B1A68944238BF1C6070BD9A
:108DB00029680848BDE87040043101F0D5B900BF0A
:108DC000B0390020AC3A0020B8390020B439002076
:108DD000643A0020843A002070B5194D2B6816467D
:108DE0000C4603F1180101F0BFF9164B5EB11B6888
:108DF0002868043001F0E0F929681348BDE87040A4
:108E0000043101F0B1B91E682868043001F0D4F9CA
:108E10002B68A4195C6007D30C4B18682968BDE85F
:108E20007040043101F0B0B9094B18682968043169
:108E300001F0AAF9074B1A68944238BF1C6070BD54
:108E4000B0390020AC3A0020843A0020B839002024
:108E5000B4390020643A002030B5C368DC6804F1FE
:108E6000180583B0284601F0A7F91C4B1B683BBBD3
:108E7000211D0846019101F09FF9194AE36A106823
:108E800001998342174888BF136003EB830300EB0B
:108E9000830001F069F9144BE26A1B68DB6A9A42AD
:108EA00082BF124B01201860114B1A68126898BFDC
:108EB000002052B90F4B4FF0FF321A6003B030BDA3
:108EC0000D48294601F050F9E5E71A68094BD268C8
:108ED000D26852681A6003B030BD00BF2C3A00203F
:108EE000343A0020BC390020B0390020B03A0020CC
:108EF000B4390020643A00206C3A0020034A044B45
:108F000012681B68C0E90023704700BF683A002060
:108F1000AC3A0020F0B50D4683B0044600F016FBD5
:108F20002B68144A591C10681DD0DFF84CC0D4E9D6
:108F30000061DCF80070BE4208D0814206D80120F2
:108F4000019000F00DFB019803B0F0BD471ABB4241
:108F50000BD91B1A0B44DCF8001012682B600020A0
:108F6000C4E90012ECE70020EAE700232B600120AF
:108F7000E6E700BFAC3A0020683A0020014B01222E
:108F80001A607047B03A0020094B186818B9094BAD
:108F90001B6813B1704700207047074A074B1068E1
:108FA0001B68013B984214BF01200220704700BF9C
:108FB0006C3A0020B03A0020843A0020203A002089
:108FC000054B1B6833B1054B1B68002B0CBF0220FF
:108FD0000020704701207047803A00202C3A002082
:108FE00070B5044682B0C8B11D4DC36A2A68D26A02
:108FF000934215D28269002A04DB2A68D26AC2F140
:1090000005028261174E626903EB830306EB83035B
:109010009A420ED02B68DB6AE362012002B070BD79
:109020002B68406CDC6AA0422CBF0020012002B0FB
:1090300070BD211D0846019101F0BEF82A680A4B57
:10904000D06A1A680199E062904200D9186000EB7A
:10905000800006EB800001F087F80120DEE700BF0A
:10906000B0390020BC390020343A002068B130B556
:10907000836CC16A426C013B914283B004468364B5
:1090800000D023B1002003B030BD00207047011D87
:109090000846019101F090F80A4A636C1068E36297
:1090A0008342094888BF1360C3F1050503EB8303BE
:1090B00000EB83000199A56101F056F8012003B08F
:1090C00030BD00BF343A0020BC39002070B130B54B
:1090D000426CC36A914238BF11468B4283B004464A
:1090E00002D0826C012A02D003B030BD7047826981
:1090F000114DC162002A03EB83034269A8BFC1F18D
:10910000050105EB8303A8BF81619A42ECD1011DE3
:109110000846019101F050F8084BE06A1A6801997D
:10912000904288BF186000EB800005EB800003B020
:10913000BDE8304001F018B8BC390020343A0020B6
:10914000044B1A681AB119688A6C01328A6418686B
:10915000704700BFB03900202DE9F0431D4EDFF805
:109160007C9085B04FF000080CE0DB68DC681F687D
:10917000251D284601F020F8636A20469847E369D8
:10918000012B0AD033681A68002AEED1124A1168FE
:109190003160136005B0BDE8F083A3693B449F4292
:1091A000294610D3D9F80030002BEBD0CDE9008749
:1091B0000294FFF705FF0023D9F800001A4669461C
:1091C000FEF764FCDEE730686360246100F0DCFFDA
:1091D000D8E700BFB43A0020B83A0020383D00205C
:1091E0002DE9F04F894E8A4CDFF82C82894DDFF84B
:1091F0002CA28BB03368D3F800B0BBF1000F00F0A5
:10920000A980DB68D3F800B0FFF780FBFFF786FB8F
:1092100022688242814600F2AE808345206040F29F
:10922000BF8000222868ABEB0901FFF729F9FFF79F
:109230001DFC40B94FF08053CAF8043040BFBFF363
:109240004F8FBFF36F8F2868002202A9FEF7FEFD43
:109250000028CFD0029B002B73DBDDF81090D9F8EB
:1092600014301BB109F1040000F0A6FFFFF756FB14
:10927000236898420746C0F08580029B2760092B2F
:10928000E1D801A252F823F0B1920200B19202009B
:10929000B1920200479202000B9302003393020046
:1092A000B1920200B1920200479202000B930200B9
:1092B0000398D9F81830C9F81090C2182CBF0121B2
:1092C0000021BA42C9F804205FD8381A834228D84E
:1092D000D9F8243048469847D9F81C302868012B23
:1092E000B2D10028B0D0D9F81820039B0021134434
:1092F000CDE907390691FFF763FE002328681A4677
:1093000006A9FEF7C3FB28689EE7039BC9F81090E7
:10931000DA19BA42C9F81830C9F8042039D8002B34
:1093200091D0D8F8000009F1040100F02DFF286861
:109330008AE799F82C30002B85D14846FEF726FBAA
:1093400081E7039BDDE904019847029B002BFFF6B0
:109350007AAF82E7FFF7DAFAFFF7E0FA2268904285
:10936000814608D3D8F80020C4F800901268B2FAF9
:1093700082F2520956E7FFF7EFFEC4F80090FFF7BC
:1093800075FB60E7FFF7E8FE77E7B84201D90029EF
:109390009ED0306809F1040100F0F6FE286853E71A
:1093A000FFF764FB3268D268D768391D084601911F
:1093B00000F002FFF8690199012803D07B6A384662
:1093C000984740E7BA693F610BEB02004845786077
:1093D00003D9306800F0D8FEF0E7A9EB0B039A42FE
:1093E0000FD82B68002BE9D00023CDE9063B089766
:1093F000FFF7E6FD002328681A4606A9FEF746FB9C
:10940000DCE7D8F8000000F0BFFED7E7B43A002050
:10941000E43C0020383D0020B83A002000ED00E098
:10942000F0B51F4C89B000F091F82568F5B100F057
:1094300097F82068C0B1002407AA06A905A8CDE9BD
:10944000054400F0DBFCDDE905310222CDE9002115
:109450000293079A134914482346FFF709F9134B5F
:109460001860001B18BF012009B0F0BD104F114E4D
:10947000384600F069FE304600F066FE0E4A0F499D
:1094800000950F4B17600E600E4A10212020FEF74A
:109490008BFA20600028CAD00B49FEF7DFFFC6E731
:1094A000383D00203CD20200E19102003C3D00200A
:1094B000BC3C0020D03C0020B43A0020B83A002048
:1094C000E83C0020BC3A002034D20200402383F361
:1094D0001188FEE730B46FF00203084C40F80C4CE2
:1094E0004FF0807540F8045C40F8081C40F8202CD0
:1094F00040F8243C30BC4438704700BFCD94020093
:109500000F4C08B5E02384F8223000F07BF80D4BB7
:109510000D4A00211960D4F8883043F47003C4F870
:109520008830536843F040435360236943F010038D
:10953000236100F065F9402383F31188FEE700BF43
:1095400000ED00E0403D002030EF00E0402383F3D9
:109550001188024A1368013313607047403D0020B0
:10956000034A1368013B13600BB983F311887047FA
:10957000403D002041DF704712DF704770B51D4B42
:1095800000221A6082B01B680193019BEFF31186E1
:10959000402383F311881849184BD1F804451A6009
:1095A0001B680093009BFFF7B9F9201A20F07F4356
:1095B00023F0010320F07F459BB96C1E6DB100259F
:1095C000FFF7BAF9013C631C45EA0005F8D125B163
:1095D0000B4B4FF080525A6040BF86F3118802B0A7
:1095E00070BDFFF7EDFC0228E7D0FFF7A5F90546AF
:1095F000EDE700BF401101400010014000110140A3
:1096000000ED00E00B4B0C4930B41F200B4DC3F8AC
:10961000080501220224E020C3F804232A601A600E
:10962000C3F8444381F811034FF400330B6030BC9E
:10963000704700BF0010014000E100E00810014049
:109640002DE9F041054684B0EFF3108272B6614C0B
:10965000A36883B9604B61480121A160D3F88010F1
:1096600001402160C3F88000D3F8841061604FF09E
:10967000FF31C3F8841002B962B6594ED6F804859A
:10968000FFF782FC78B3574F574AAF4228BF2F46A7
:1096900007EB080323F07F4301214FF0000CC6F8CD
:1096A0000813C6F84035C2F800C0136801934FF4A0
:1096B00080330198C6F80433BFF34F8F25BBC6F83B
:1096C000083315601268494B0392039A1D601B68AA
:1096D0000293414B029AC6F804134FF40032D6F8B5
:1096E0000415C3F88021A3685BB1EFF3108272B652
:1096F000394B21681960616859600023A36002B981
:1097000062B604B0BDE8F081F1EE103A23F09F0399
:10971000E1EE103AF1EE103A2F4D4023C5F88431B6
:1097200003A88DF80CC0FFF727FF9DF80C30002B25
:109730004DD12B4620BFD3F80011D3F804210A43A2
:10974000F8D0274B2848294A4FF48031C3F8081332
:109750000021016000680390039811601268029272
:1097600001220299C3F80423D3F804351A4AA3EB63
:10977000080828F07F48474528BF47464FF4003384
:10978000012FC2F8803120D9781EFFF7CDF8184B91
:10979000DB68DA010FD5174A1368DB070BD5164BC8
:1097A000516803FB07F7A7F57427A7F51077BF0AE1
:1097B00001EB87175760FFF7BFF8002893D00F4BD6
:1097C0004FF080525A6040BF8DE7F4D08BE7FFF72F
:1097D000D1FEB6E7B043002000E100E0FC06FFBD8B
:1097E00000100140FDFFFF00401101400011014049
:1097F000F0ED00E0001000E040420F0000ED00E05E
:109800000748006880F3088862B661B6BFF34F8FDF
:10981000BFF36F8F4FF0E00080F3118800DF00BFCF
:1098200000600200064B19680868B0E8F04F80F34A
:109830000988BFF36F8F4FF0000080F311887047E5
:10984000B0390020EFF30980BFF36F8F144B1A6813
:109850001EF0100F08BF20ED108A20E9F04F1060B5
:109860004DF8043D4FF0400080F31188BFF34F8F57
:10987000BFF36F8FFFF716FA4FF0000080F31188E7
:1098800008BC19680868B0E8F04F1EF0100F08BF58
:10989000B0EC108A80F30988BFF36F8F704700BF68
:1098A000B0390020704700BF00293ED0931E222B04
:1098B0003BD8F0B40A2A8AB0044631D0002001AF68
:1098C0003B467CB1B4FBF2F502FB1546092E2C4653
:1098D00006F1570598BF06F13005EDB203F8015BBC
:1098E000002CEFD1302201E003F8012BBB42FBD06A
:1098F0000D4688B9BB4209D96C1E1A4612F8010DF3
:1099000004F8010FBA42F9D19B1A1D4400230846FE
:109910002B700AB0F0BC70472D2205F8012BE9E747
:109920000028CBDA44420120C9E70020704700BF7D
:10993000FFF7BABF0A490B4A0B4B9B1A03DD043BE6
:10994000C858D050FBDC094809494FF0AD320260DD
:1099500004300439FBD100F06FF8FCF779FC00000B
:1099600034D5020000360020EC37002000F800203B
:1099700000080000FEE7FEE7FEE7FEE7FEE7FEE781
:10998000FEE7FEE7FEE7FEE708B5FCF7D5FE114B64
:10999000BBB1114B63B1FCF715FF00F011FAFDF7F5
:1099A000C1FDFCF70FFF00F00BFAFDF7BBFDF2E77E
:1099B000FCF708FF00F004FAFCF704FF00F000FADF
:1099C000F6E7FCF7FFFE00F0FBF9FCF7FBFE00F00A
:1099D000F7F9F6E7000000002575020000B583B036
:1099E00000F082FAFDF7BCF80E4B019301230E49FB
:1099F00000934FF4806200230C48FEF7A9FE4FF459
:109A0000407000F04DFAFEF71BFFBFF34F8F08497F
:109A1000084BCA6802F4E0621343CB60BFF34F8F78
:109A200000BFFDE7443D002044D2020089990200B6
:109A300000ED00E00400FA05914B1B6830B45D1C9A
:109A400000F0F5808F4A1268062B00F0E5808E4BFF
:109A50001B78062B00F0CF80894B1B685C1C00F044
:109A6000C380884A1268062B00F0B380864B1B78AF
:109A7000062B00F09B80824B1B68581C00F08F80E7
:109A8000804A1268062B7CD07F4B1B78062B5AD05D
:109A90007B4B1B68591C1ED07A4A062B11680FD0CD
:109AA0007A4AD2F8883043F47003C2F88830BFF3A2
:109AB0004F8FBFF36F8F764B764A1A6030BC70477A
:109AC000CA1E032A40F212810339032940F2B680EC
:109AD0006C4B1B68C2E06C496F4A09781268062912
:109AE000C2F30312DCD1033A032A40F2FF80664A34
:109AF000694B12781B68062AC3F30313D0D1033BCA
:109B0000032B40F29B80604A634B12781B68062A45
:109B1000C3F3031308BF4FF0FF32C1D1033B032B44
:109B200040F2A280574B1B68062AB9D1033B032B96
:109B3000B6D85A4AD35C002BB2D0594A136843F4C2
:109B400080631360ACE7544B1B68C3F30313033B00
:109B5000032B9DD8534AD25C12B1534A03211160A2
:109B6000524AD35C002B93D0514A524C5249534B2A
:109B700005201060012500203F22256008601A6042
:109B800086E7033A032A3FF67FAF4FF08043002277
:109B9000C3F80C21C3F81021C3F8382574E73E4AF6
:109BA000394B12681B78C2F303126BE73A4B1B6800
:109BB000C3F30313033B032B3FF65DAF404AD35C73
:109BC000002B3FF458AF3F4AD36823F08073D36033
:109BD00051E7033A032A3FF649AF3B4B3B4A1B6828
:109BE000C3F34233136041E72B4A274B12681B78BB
:109BF000C2F3031237E7284B1B68C3F30313033B7D
:109C0000032B3FF629AF324AD35C002B3FF424AF3D
:109C1000304B314A1A601FE7033A032A3FF617AF69
:109C20002E4B2F4A1B68C3F3042313600FE71A4A15
:109C3000154B12681B78C2F3031205E7294B104A33
:109C40001B681268284903F04F030B60531C3FF454
:109C50005AAF0C4B062A1B687FF422AF033B032B41
:109C60004FF006023FF65EAF4FF08041D1F800346E
:109C700013F0010F034B40F093801B6854E700BFC3
:109C80003001001034010010E00F00F000ED00E0A2
:109C9000003600200090D003E80F00F050D2020000
:109CA0003C17004054D20200A005004054D20200EC
:109CB0001056004088560040185600401456004088
:109CC00054D20200F0ED00E0440200103C050040D8
:109CD00054D2020074C007400DF0ADBA2403001046
:109CE0004035014058020010E40E004030498A5CC3
:109CF000002A48D04FF080532E4AD3F80414C2F8FB
:109D00002015D3F80814C2F82415D3F80C14C2F89F
:109D10002815D3F81014C2F82C15D3F81414C2F86F
:109D20003015D3F81814C2F83415D3F81C14C2F83F
:109D30004015D3F82014C2F84415D3F82414C2F8FF
:109D40004815D3F82814C2F84C15D3F82C14C2F8CF
:109D50005015D3F83014C2F85415D3F83414C2F89F
:109D60006015D3F83814C2F86415D3F83C14C2F85F
:109D70006815D3F840141048C2F86C15D3F8441491
:109D80000368C2F870155A1C3FF4B1AE0B4A062B9B
:109D900011687FF485AE033903293FF699AE4DE78C
:109DA000054A1B6812686FF00100C1F80004BBE6A9
:109DB0004CD2020000C000403001001034010010FD
:109DC000044B4FF080525A6040BFBFF34F8FBFF338
:109DD0006F8F704700ED00E0704700BF704700BF15
:109DE000044B036010B46423034C0C605DF8044B17
:109DF00013607047483D00209C3D0020054B0360E8
:109E000010B44FF48073044C0C605DF8044B136085
:109E1000704700BF2C3F0020803F002070B51F4DD1
:109E200084B028684FF0FF3203A9FEF70FF800282E
:109E3000F7D0039C237A6668052B0CD8DFE803F083
:109E40002629211B1403D4E90523D4E90301E4697D
:109E50000094B047039C206810B1FDF74DFD039CB2
:109E60002046FDF749FDDCE7D4E90523D4E90301E9
:109E7000B047039CEFE7D4E90412E068B047039CC5
:109E8000E9E7D4E90301B047039CE4E7B047039C4A
:109E9000E1E7E068B047039CDDE700BF84430020B2
:109EA00070B540230B4D82B00446002218460421B1
:109EB0002B60FDF7A9FD084D084B019306460223D0
:109EC000009307492E60A2B200230648FEF740FC2B
:109ED00002B070BD804300208443002088430020EE
:109EE00058D202001D9E02004FF08043174AD3F85B
:109EF0000014174830B41160D3F80054D3F800248C
:109F0000144C15492A43C3F80024D4F840250260B4
:109F100001224FF40030C3F818259A60C1F8800080
:109F2000BFF34F8FBFF36F8F4FF0A04003F588331F
:109F30004FF480314FF0FF34C3F84813C3F80813CF
:109F40005A609A60C0F8084530BC70478C430020C6
:109F50009043002000A0004000E100E01F2816D838
:109F6000474B53F820300E2911D8DFE801F08179F2
:109F70007169615950473E352C231A11080003F5C9
:109F8000E0734FF0A04240F2037142F82310704793
:109F900003F5E0734FF0A04240F2036142F8231052
:109FA000704703F5E0734FF0A04240F2035142F8CE
:109FB0002310704703F5E0734FF0A04240F20341D5
:109FC00042F82310704703F5E0734FF0A04240F2CF
:109FD000033142F82310704703F5E0734FF0A042BD
:109FE00040F2032142F82310704703F5E0734FF06D
:109FF000A04240F2031142F82310704703F5E073CA
:10A000004FF0A0424FF4403142F82310704703F55F
:10A01000E0734FF0A0424FF4003142F82310704734
:10A0200003F5E0734FF0A042164942F82310704741
:10A0300003F5E0734FF0A042134942F82310704734
:10A0400003F5E0734FF0A042042142F8231070475B
:10A0500003F5E0734FF0A0420C2142F82310704743
:10A0600003F5E0734FF0A042032142F8231070473C
:10A0700003F5E0734FF0A042002142F8231070472F
:10A0800068D10200040002000C0003001F2809D858
:10A09000084B53F82020012329B14FF0A0419340F1
:10A0A000C1F8083570474FF0A0419340C1F80C3516
:10A0B000704700BF68D102001F2808D8044B53F82E
:10A0C00020104FF0A04201238B40C2F80C3570479E
:10A0D00068D1020010B540220021044600F016FDB0
:10A0E0000023C4E91033204610BD00BF10B4D0E9EE
:10A0F0001024531C03F03F039C4218BF81545DF8A9
:10A10000044B18BF036470470023C0E91033704745
:10A11000D0E91023934206D05A1CC35C02F03F02E0
:10A120004264184670474FF0FF307047D0E9103056
:10A13000181A48BF40307047D0E91023934214BF2B
:10A14000C05C4FF0FF30704700F108034FF0FF3163
:10A150000022C0E90333816002604360704700BFA2
:10A1600000230361704700BF4368026810B49C6815
:10A170008C609C684B600132616099605DF8044BB3
:10A1800008610260704700BF30B40D686B1C10D0CE
:10A1900000F108031C465B681A68AA42FAD90268F3
:10A1A0004B60013299608C606160086130BC026074
:10A1B000704704696368F2E7036910B4D0E90112DB
:10A1C0005C688A608442516008BF5A601A685DF812
:10A1D000044B0021013A01611A601868704700BF02
:10A1E00081F0004102E000BF83F0004330B54FEA48
:10A1F00041044FEA430594EA050F08BF90EA020FB5
:10A200001FBF54EA000C55EA020C7FEA645C7FEA47
:10A21000655C00F0E2804FEA5454D4EB5555B8BF6A
:10A220006D420CDD2C4480EA020281EA030382EADB
:10A23000000083EA010180EA020281EA0303362D6D
:10A2400088BF30BD11F0004F4FEA01314FF4801C40
:10A250004CEA113102D0404261EB410113F0004F52
:10A260004FEA03334CEA133302D0524263EB430309
:10A2700094EA050F00F0A780A4F10104D5F1200EA7
:10A280000DDB02FA0EFC22FA05F2801841F1000102
:10A2900003FA0EF2801843FA05F359410EE0A5F1D6
:10A2A00020050EF1200E012A03FA0EFC28BF4CF007
:10A2B000020C43FA05F3C01851EBE37101F00045BD
:10A2C00007D54FF0000EDCF1000C7EEB00006EEBCA
:10A2D0000101B1F5801F1BD3B1F5001F0CD3490854
:10A2E0005FEA30004FEA3C0C04F101044FEA4452AB
:10A2F00012F5800F80F09A80BCF1004F08BF5FEA32
:10A30000500C50F1000041EB045141EA050130BD11
:10A310005FEA4C0C404141EB0101013C28BFB1F523
:10A32000801FE9D291F0000F04BF01460020B1FA6E
:10A3300081F308BF2033A3F10B03B3F120020CDA41
:10A340000C3208DD02F1140CC2F10C0201FA0CF01F
:10A3500021FA02F10CE002F11402D8BFC2F1200C84
:10A3600001FA02F120FA0CFCDCBF41EA0C0190403A
:10A37000E41AA2BF01EB0451294330BD6FEA040483
:10A380001F3C1CDA0C340EDC04F11404C4F120026E
:10A3900020FA04F001FA02F340EA030021FA04F380
:10A3A00045EA030130BDC4F10C04C4F1200220FAD7
:10A3B00002F001FA04F340EA0300294630BD21FA15
:10A3C00004F0294630BD94F0000F83F4801306BFDB
:10A3D00081F480110134013D4EE77FEA645C18BFCF
:10A3E0007FEA655C29D094EA050F08BF90EA020F66
:10A3F00005D054EA000C04BF1946104630BD91EA5E
:10A40000030F1EBF0021002030BD5FEA545C05D160
:10A410004000494128BF41F0004130BD14F580049F
:10A420003CBF01F5801130BD01F0004545F0FE4113
:10A4300041F470014FF0000030BD7FEA645C1ABF48
:10A44000194610467FEA655C1CBF0B46024650EA7F
:10A45000013406BF52EA033591EA030F41F40021AB
:10A4600030BD00BF90F0000F04BF0021704730B531
:10A470004FF4806404F132044FF000054FF0000106
:10A4800050E700BF90F0000F04BF0021704730B5C7
:10A490004FF4806404F1320410F0004548BF40429C
:10A4A0004FF000013EE700BF42004FEAE2014FEAF1
:10A4B00031014FEA02701FBF12F07F4393F07F4FCC
:10A4C00081F06051704732F07F4208BF704793F0CF
:10A4D0007F4F04BF41F40021704730B54FF46074E2
:10A4E00001F0004521F000411CE700BF50EA0102E5
:10A4F00008BF704730B54FF000050AE050EA01028E
:10A5000008BF704730B511F0004502D5404261EBFD
:10A5100041014FF4806404F132045FEA915C3FF43E
:10A52000D8AE4FF003025FEADC0C18BF03325FEADB
:10A53000DC0C18BF033202EBDC02C2F1200300FA8C
:10A5400003FC20FA02F001FA03FE40EA0E0021FAB1
:10A5500002F11444BDE600BF70B54FF0FF0C4CF49F
:10A56000E06C1CEA11541DBF1CEA135594EA0C0F51
:10A5700095EA0C0F00F0DEF82C4481EA030621EA8C
:10A580004C5123EA4C5350EA013518BF52EA0335C7
:10A5900041F4801143F4801338D0A0FB02CE4FF079
:10A5A0000005E1FB02E506F00042E0FB03E54FF0A9
:10A5B0000006E1FB03569CF0000F18BF4EF0010EA1
:10A5C000A4F1FF04B6F5007F64F5407404D25FEA9D
:10A5D0004E0E6D4146EB060642EAC62141EA555150
:10A5E0004FEAC52040EA5E504FEACE2EB4F1FD0C92
:10A5F00088BFBCF5E06F1ED8BEF1004F08BF5FEA10
:10A60000500E50F1000041EB045170BD06F00046C1
:10A6100046EA010140EA020081EA0301B4EB5C046E
:10A62000C2BFD4EB0C0541EA045170BD41F4801166
:10A630004FF0000E013C00F3AB8014F1360FDEBF8B
:10A64000002001F0004170BDC4F10004203C35DA67
:10A650000C341BDC04F11404C4F1200500FA05F3EA
:10A6600020FA04F001FA05F240EA020001F000428B
:10A6700021F0004110EBD37021FA04F642EB060101
:10A680005EEA430E08BF20EAD37070BDC4F10C042B
:10A69000C4F1200500FA04F320FA05F001FA04F2EF
:10A6A00040EA020001F0004110EBD37041F10001DB
:10A6B0005EEA430E08BF20EAD37070BDC4F12005E6
:10A6C00000FA05F24EEA020E20FA04F301FA05F24E
:10A6D00043EA020321FA04F001F0004121FA04F2F6
:10A6E00020EA020000EBD3705EEA430E08BF20EAC6
:10A6F000D37070BD94F0000F0FD101F00046400000
:10A7000041EB010111F4801F08BF013CF7D041EA81
:10A71000060195F0000F18BF704703F00046520085
:10A7200043EB030313F4801F08BF013DF7D043EA56
:10A730000603704794EA0C0F0CEA135518BF95EA0C
:10A740000C0F0CD050EA410618BF52EA4306D1D193
:10A7500081EA030101F000414FF0000070BD50EAB2
:10A76000410606BF1046194652EA430619D094EA3C
:10A770000C0F02D150EA013613D195EA0C0F05D126
:10A7800052EA03361CBF104619460AD181EA03017A
:10A7900001F0004141F0FE4141F470014FF0000032
:10A7A00070BD41F0FE4141F4780170BD70B54FF0CD
:10A7B000FF0C4CF4E06C1CEA11541DBF1CEA13554D
:10A7C00094EA0C0F95EA0C0F00F0A7F8A4EB05042F
:10A7D00081EA030E52EA03354FEA013100F0888026
:10A7E0004FEA03334FF0805545EA131343EA1263EF
:10A7F0004FEA022245EA111545EA10654FEA0026A4
:10A800000EF000419D4208BF964244F1FD0404F55C
:10A81000407402D25B084FEA3202B61A65EB0305B8
:10A820005B084FEA32024FF480104FF4002CB6EB75
:10A83000020E75EB030E22BFB61A754640EA0C00F5
:10A840005B084FEA3202B6EB020E75EB030E22BF35
:10A85000B61A754640EA5C005B084FEA3202B6EB76
:10A86000020E75EB030E22BFB61A754640EA9C0035
:10A870005B084FEA3202B6EB020E75EB030E22BF05
:10A88000B61A754640EADC0055EA060E18D04FEAC3
:10A89000051545EA16754FEA06164FEAC30343EA63
:10A8A00052734FEAC2025FEA1C1CC0D111F4801F30
:10A8B0000BD141EA00014FF000004FF0004CB6E729
:10A8C00011F4801F04BF01430020B4F1FD0C88BFC8
:10A8D000BCF5E06F3FF6AFAEB5EB030C04BFB6EBD3
:10A8E000020C5FEA500C50F1000041EB045170BDC6
:10A8F0000EF0004E4EEA113114EB5C04C2BFD4EBF3
:10A900000C0541EA045170BD41F480114FF0000E76
:10A91000013C90E645EA060E8DE60CEA135594EAF2
:10A920000C0F08BF95EA0C0F3FF43BAF94EA0C0FF5
:10A930000AD150EA01347FF434AF95EA0C0F7FF46A
:10A9400025AF104619462CE795EA0C0F06D152EABE
:10A9500003353FF4FDAE1046194622E750EA4106A2
:10A9600018BF52EA43067FF4C5AE50EA41047FF4B3
:10A970000DAF52EA43057FF4EBAE12E74FEA410216
:10A98000B2F1E04324BFB3F5001CDCF1FE5C0DD94D
:10A9900001F0004C4FEAC0024CEA5070B2F1004F97
:10A9A00040EB830008BF20F00100704711F0804F9A
:10A9B00021D113F13872BCBF01F00040704741F45F
:10A9C00080114FEA5252C2F11802C2F1200C10FA63
:10A9D0000CF320FA02F018BF40F001004FEAC12347
:10A9E0004FEAD32303FA0CFC40EA0C0023FA02F3EB
:10A9F0004FEA4303CCE77FEA625307D150EA0133C1
:10AA00001EBF4FF0FE4040F44000704701F0004090
:10AA100040F0FE4040F40000704700BF08B5074B0F
:10AA2000044613B10021AFF30080054B1868836A18
:10AA300003B19847204602F077FA00BF00000000FB
:10AA400064D2020070B50D4D0D4C641BA41000269D
:10AA5000A64209D10B4D0C4C02F068FA641BA410FD
:10AA60000026A64205D170BD55F8043B9847013633
:10AA7000EEE755F8043B98470136F2E7D43700205B
:10AA8000D4370020D4370020E8370020024B184488
:10AA9000407800F0080070479CD20200024B01464B
:10AAA000186800F09BB800BF04360020024B014636
:10AAB000186800F043B800BF043600200A449142F1
:10AAC00000F1FF3300D1704710B511F8014B03F8C6
:10AAD000014F9142F9D110BD884210B501EB02043B
:10AAE00002D98442234607D8431EA14208D011F858
:10AAF000012B03F8012FF8E7024401468A4200D1F6
:10AB000010BD13F8014D02F8014DF7E7024403466A
:10AB1000934200D1704703F8011BF9E713B54A438C
:10AB20001146019200F05AF8044618B1019A00212A
:10AB3000FFF7ECFF204602B010BD000037B500293A
:10AB400048D051F8043C0190002BA1F10404B8BF97
:10AB5000E41801F065FC204A01981368154633B9E2
:10AB60006360146003B0BDE8304001F05FBCA342F5
:10AB70000BD921686218934204BF1A685B6863604E
:10AB800004BF521822602C60ECE71A465B680BB1D8
:10AB9000A342FAD911685518A5420BD12468214463
:10ABA0005418A3421160DDD11C685B6853602144D6
:10ABB0001160D7E702D90C230360D3E72568611938
:10ABC0008B4204BF19685B68636004BF4919216048
:10ABD0005460C7E703B030BD94430020F8B5CD1CE6
:10ABE00025F0030508350C2D38BF0C25002D064631
:10ABF00001DBA94203D90C2333600020F8BD01F02A
:10AC00000FFC21490A6814469CB9204F3B6823B9C0
:10AC10002146304600F0AEFC38602946304600F050
:10AC2000A9FC431C23D10C233360304601F0FEFB0A
:10AC3000E3E723685B1B17D40B2B03D923601C4469
:10AC4000256004E06368A2420CBF0B60536030468D
:10AC500001F0ECFB04F10B00231D20F00700C21AE9
:10AC6000CCD01B1AA350C9E722466468CCE7C41CA9
:10AC700024F00304A042E3D0211A304600F07AFC0D
:10AC80000130DDD1CFE700BF94430020984300207E
:10AC90002DE9FF4755EC104B002D0E4619462B466B
:10ACA000BBBF05F100431D4600232D230B700D9BF8
:10ACB000DDF830A0914623F02008BCBF22461446A0
:10ACC000B8F1460F05D0B8F1450F00D10136022189
:10ACD00000E0032103AB019302AB009345EC104B62
:10ACE0005346324600F050FDB8F1470F074602D1F7
:10ACF00019F0010F22D0B8F1460F07EB060910D169
:10AD00003B78302B0AD1002200232046294602F04E
:10AD10008DF818B9C6F10106CAF80060DAF80030FB
:10AD20009944002200232046294602F07FF808B10A
:10AD3000CDF80C903022039B4B4507D3039B0E9A12
:10AD4000DB1B3846136004B0BDE8F087591C039143
:10AD50001A70F0E7F7B503460029B8BF494203F877
:10AD6000022BB4BF2D222B22092942702ADD0DF1BE
:10AD70000704A4460A27A6460A4691FBF7F607FBF6
:10AD800016153035632A04F1FF340EF8015C3146A4
:10AD9000F1DC3031AEF1020504F8011C441C2946F7
:10ADA00061450AD30DF10902A2EB0E02654588BF89
:10ADB00000221344181A03B0F0BD11F8012B04F857
:10ADC000012FEDE7302330318370C170031DF1E7AF
:10ADD0002DE9F04F2DED028B8DB00C46DDF8608033
:10ADE00016461F46054601F0ADFAD0F800A05046C1
:10ADF00000F036FC00230A9323680593D8F800304E
:10AE000094F818B0073323F0070303F10802C8F8D9
:10AE10000020D3E90023C4E91223D4E9128929F0E0
:10AE200000430793CDF8188008EE100A9F4BDDE928
:10AE300006014FF0FF3202F02BF888BBDDE9060176
:10AE40009A4B4FF0FF3202F005F848BB0022002376
:10AE50004046494601F0F4FF10B12D2384F84330F9
:10AE6000934B9448BBF1470F94BF98468046032309
:10AE70002361059B23F0040222604FF00009009734
:10AE800033460BAA2146284600F0D8F9013040F09D
:10AE900090804FF0FF300DB0BDEC028BBDE8F08F1D
:10AEA00042464B464046494601F0F2FF40B14B4610
:10AEB000002BBCBF2D2384F843307F487F4BD1E764
:10AEC00063680BF0DF0206925A1C3FD106236360D1
:10AED000059B616843F48062002303930AABCDE9CC
:10AEE00001B309AB49EC108B009322600DF12303F1
:10AEF0002846FFF7CDFE069B0999472B804608D1CF
:10AF0000C81C02DB6368994241DDABF1020B5FFABA
:10AF10008BFBBBF1650F20D801395A4604F1500074
:10AF20000991FFF717FF0A9A1318012A8146236136
:10AF300002DC2268D20701D5013323619DF823305A
:10AF4000002B9CD02D2384F8433098E7069A472A9B
:10AF5000BED1002BBCD10123B9E7BBF1660F18D1DC
:10AF6000002963680BDD216113B92268D00702D57F
:10AF700001330B442361A1654FF00009DEE713B9EB
:10AF80002268D20701D50233F4E70123F2E74FF03C
:10AF9000670B0A9B994205DB23682161D807EAD534
:10AFA0004B1CE7E70029D4BFC1F102020122134480
:10AFB000E0E723685A0507D423694246314628460C
:10AFC000B84701302CD164E7BBF1650F40F2E08057
:10AFD000D4E912010022002301F028FF002834D018
:10AFE000374A012331462846B84701303FF451AF74
:10AFF000DDE909239A4202DB2368D80710D518EE51
:10B00000103A524631462846B84701303FF441AF26
:10B010004FF0000804F11A090A9B013B434509DC83
:10B0200023689B0700F10581E0680B9B9842B8BF3D
:10B03000184630E701234A4631462846B8470130D2
:10B040003FF427AF08F10108E6E7099B002B39DC44
:10B050001B4A012331462846B84701303FF419AF57
:10B06000DDE90923134302D12368D907D8D518EEA7
:10B07000103A524631462846B84701303FF409AFEE
:10B080004FF0000904F11A0A099B5B424B4501DCB1
:10B090000A9B92E70123524631462846B8470130C1
:10B0A0003FF4F7AE09F10109EEE700BFFFFFEF7FC4
:10B0B00068D202006CD2020074D2020070D2020088
:10B0C00078D202000A9AA36D9A42A8BF1A46002AB3
:10B0D000914637DC4FF0000B29EAE97904F11A02B6
:10B0E000A36D0593A3EB09035B4533DCDDE909237D
:10B0F0009A423BDB2368DA0738D40A9A059B099900
:10B10000D31AA2EB01099945A8BF9946B9F1000FDE
:10B1100035DC4FF0000829EAE97904F11A0ADDE983
:10B1200009239B1AA3EB090343457FF779AF01235A
:10B13000524631462846B84701303FF4AAAE08F1DE
:10B140000108ECE71346314642462846B84701302D
:10B15000C0D19EE60123314628460592B84701300A
:10B160003FF497AE059A0BF1010BB9E718EE103AD0
:10B17000524631462846B8470130BED189E6059A85
:10B180004B46424431462846B8470130C1D180E69B
:10B190000A9A012A01DCDB0738D5012342463146F1
:10B1A0002846B84701303FF474AE18EE103A5246C4
:10B1B00031462846B84701303FF46BAED4E912015E
:10B1C0000022002301F032FED8B90A9B08F10102E7
:10B1D000013B31462846B84701300ED159E60123DC
:10B1E000524631462846B84701303FF452AE08F186
:10B1F00001080A9B013B4345F1DC4B4604F1500238
:10B20000DCE64FF0000804F11A0AF2E70123424697
:10B21000DFE701234A4631462846B84701303FF46C
:10B2200038AE08F10108E3680B995B1A4345F0DC7E
:10B23000FAE64FF0000804F11909F4E72DE9F047A8
:10B24000164699468A680B69DDF820809342B8BF9C
:10B250001346336091F8432007460C460AB1013388
:10B2600033602368990642BF336802333360256830
:10B2700015F0060506D104F1190AE36832689B1A35
:10B28000AB4226DC94F84320131E226818BF01232A
:10B2900092062BD404F1430249463846C047013098
:10B2A0001ED02368E568326803F00603042B08BF4C
:10B2B000AD1AA36822690CBF25EAE5750025934203
:10B2C000C4BF9B1AED1800261A34B5421AD10020CB
:10B2D00008E00123524649463846C047013003D1B1
:10B2E0004FF0FF30BDE8F0870135C6E7E1185A1C82
:10B2F000302081F84300224494F8451082F843102E
:10B300000233C7E70123224649463846C047013089
:10B31000E6D00136D9E700002DE9FF470C469146FB
:10B32000277E0C99782F80469A4604F1430207D86D
:10B33000622F0AD8002F00F0D880582F00F0A38089
:10B3400004F1420684F842703AE0A7F16303152B3A
:10B35000F6D801A050F823F0B1B30200C5B3020043
:10B3600041B3020041B3020041B3020041B3020005
:10B37000C5B3020041B3020041B3020041B3020071
:10B3800041B30200D1B40200F5B30200B3B402002D
:10B3900041B3020041B30200F3B4020041B3020022
:10B3A000F5B3020041B3020041B30200BBB4020096
:10B3B0000B681A1D1B680A6004F1420684F84230CB
:10B3C0000123A3E0256808682E0600F104030AD5CE
:10B3D00005680B60002D03DA2D236D4284F843309D
:10B3E0005E480A2319E015F0400F05680B6018BF8E
:10B3F0002DB2EFE70B682568181D0860280601D5F7
:10B400001D6802E06906FBD51D8854486F2F0CBFEC
:10B4100008230A23002184F843106668A660002EE2
:10B42000A2BF216821F0040121600DB9002E4DD08A
:10B430001646B5FBF3F103FB1157C75D06F8017D16
:10B440002F46BB420D46F4D9082B0BD12368DF07EA
:10B4500008D5236961689942DEBF302306F8013CB4
:10B4600006F1FF36921B2261CDF800A04B4603AADD
:10B4700021464046FFF7E2FE01304CD14FF0FF304D
:10B4800004B0BDE8F087354884F8457023680E683D
:10B490001F0656F8045B0E6014D5D90744BF43F06D
:10B4A000200323601DB9236823F0200323601023A9
:10B4B000B0E7236843F0200323607823284884F80A
:10B4C0004530E3E75E0648BFADB2E6E71646BBE7A8
:10B4D0000B68266860691D1D0D6035061B6801D567
:10B4E000186002E07106FBD5188000232361164620
:10B4F000BAE70B681A1D0A601E68626800213046B0
:10B5000000F03EFF08B1801B606063682361002388
:10B5100084F84330A8E72369324649464046D0477D
:10B520000130ABD023689B0713D4E068039B98429B
:10B53000B8BF1846A4E70123324649464046D047E3
:10B5400001309BD00135E36803995B1AAB42F2DC12
:10B55000EBE7002504F11906F5E700BF7AD20200F7
:10B560008BD20200024B0A460146186801F071BAFC
:10B570000436002038B5064D0023044608462B60EB
:10B5800001F0C4FC431C02D12B6803B1236038BD19
:10B59000C84300200CB430B5174B0C1E1D689DB07D
:10B5A00008DA8B232B604FF0FF301DB0BDE8304030
:10B5B00002B070474FF40273ADF8143014BF04F1B9
:10B5C000FF332346049307934FF6FF7302900690D0
:10B5D000ADF81630209A21AB02A92846019301F05C
:10B5E000B9FA431CBCBF8B232B60002CDDD0029B1F
:10B5F00000221A70D9E700BF043600200EB400B54F
:10B600009CB01DAB029006906FF000410948079175
:10B610000491094953F8042B05910068019302A98C
:10B6200001F098FA029B00221A701CB05DF804EB3E
:10B6300003B07047043600200802FFFF10F8012B0A
:10B6400011F8013B012A28BF9A42F7D0D01A70475F
:10B65000034611F8012B03F8012B002AF9D170479A
:10B66000034613F8012B002AFBD1181A0138704742
:10B670002DE9F74F03690C69A3420746C0F28180A8
:10B68000013C01F1140800F1140505EB840301935A
:10B6900058F8243055F8242001339A424FEA840B9D
:10B6A00008EB8409B2FBF3F631D34FF0000E4046AD
:10B6B000AC46F24650F8042B93B206FB03E34FEA84
:10B6C000134E9BB2AAEB0303120CDCF800A006FB9E
:10B6D00002E213FA8AF34FEA124E1FFA82FADCF8FA
:10B6E0000020CAEB124202EB23429BB243EA024320
:10B6F00081454CF8043B4FEA224ADBD255F80B3027
:10B700002BB9019B043B9D421A462ED33C6138461F
:10B7100001F0BDF8002824DB013628464FF0000C6C
:10B7200058F8042BD0F800E093B2ACEB0303120CF2
:10B7300013FA8EF3C2EB1E4202EB23429BB243EAA2
:10B740000243C14540F8043B4FEA224CE8D255F889
:10B75000242005EB840322B9043B9D421A460AD3F8
:10B760003C61304603B0BDE8F08F1268043B002A0C
:10B77000CCD1013CC7E71268043B002AF0D1013C60
:10B78000EBE70020EEE700002DE9F04F2DED028BF6
:10B7900057EC106B95B0456ADDF880800591CDE9D6
:10B7A0000267044609920F933DB91020FCF78AF80E
:10B7B000C0E9015560620560C560636A196851B1EE
:10B7C0005A684A60012393408B60204600F068FE6F
:10B7D000636A00221A603B1EB9BF23F00043039343
:10B7E0000023C8F80030DDF80C90B74BBCBF012235
:10B7F000C8F8002033EA09031BD10F9A42F20F73F5
:10B800001360C9F31303334300F07585219B63B9BB
:10B81000AE4B25E0AE4B00930833219A136000989D
:10B8200015B0BDEC028BBDE8F08FA84B009303333D
:10B83000F3E79DED027B002251EC170B00238DED09
:10B840000A7B01F0F3FA804660B10F9A012313607E
:10B85000219B002B00F04C859E4B219A1360013BED
:10B860000093DCE79DED0A0B12AA13A9204601F014
:10B87000A0F8C9F30A558246002D7ED00B9BCDF867
:10B880004080C3F31303DDE90A6743F07F5747F4B1
:10B890004017A5F2FF35904B002230463946FEF79F
:10B8A000A3FC83A3D3E90023FEF756FE82A3D3E9CA
:10B8B0000023FEF79BFC064628460F46FEF7E2FDF6
:10B8C0007FA3D3E90023FEF747FE02460B4630462E
:10B8D0003946FEF78BFC06460F4601F0EFFA0022D0
:10B8E000814600233046394601F0AAFA48B148465D
:10B8F000FEF7C8FD32463B4601F098FA08B909F157
:10B90000FF39B9F1160F56D8744B03EBC903D3E9CD
:10B910000023DDE90A0101F093FA00284DD009F176
:10B92000FF3900230E93129B5D1B6B1E049343BFD4
:10B930000023C5F1010804934FF00008B9F1000F8E
:10B940003DDB049BCDF834904B44049300230693D5
:10B95000059B092B00F29A80052BC4BF043B05937D
:10B96000059BA3F10203CCBF00250125032B00F2A8
:10B970009980DFE803F02C7D7B89DDE912531D44BB
:10B9800005F23243202BC1BFC3F1400305F2124040
:10B9900009FA03F326FA00F0DABFC3F1200306FA2E
:10B9A00003F01843FEF75EFD01230646A1F1F87788
:10B9B000013D10936FE70123B4E70E90B3E7C9F19F
:10B9C000000306930023A8EB09080D93C0E70023AA
:10B9D0000893099B002B00F385804FF0010BCDF8F5
:10B9E00004B05B46CDF824B0666A0022726004227F
:10B9F00002F11400984271687AD9204600F01CFDCB
:10BA0000636A30601B680093019B0E2B00F2F58087
:10BA1000002D00F0F280B9F1000F7DDD2F4A09F012
:10BA20000F0302EBC30393ED007B19F4807F4FEA11
:10BA30002917B0EE478AF0EE678A5DD0284BDDE922
:10BA40000A01D3E90823FEF7B1FECDE9020107F0B0
:10BA50000F070325224E002F50D1DDE9020153ECE0
:10BA6000182BFEF7A3FECDE902016FE00123AFE73B
:10BA700000230893099B09EB030B0BF10103012B36
:10BA80000193B8BF0123AFE70123F2E701250023AB
:10BA9000059308954FF0FF3B0022CDF804B0122328
:10BAA0000992A1E701230893F4E700BFAFF30080F8
:10BAB00061436F63A787D23FB3C8608B288AC63FB4
:10BAC000FB799F501344D33F0000F07FA6D30200C0
:10BAD0009DD3020079D202000000F83F40D402005A
